{
  "_format": "hh-sol-artifact-1",
  "contractName": "ReservePool",
  "sourceName": "contracts/markets/internal/pools/ReservePool.sol",
  "abi": [
    {
      "anonymous": false,
      "inputs": [
        {
          "indexed": true,
          "internalType": "address",
          "name": "previousOwner",
          "type": "address"
        },
        {
          "indexed": true,
          "internalType": "address",
          "name": "newOwner",
          "type": "address"
        }
      ],
      "name": "OwnershipTransferred",
      "type": "event"
    },
    {
      "inputs": [
        {
          "internalType": "uint256",
          "name": "_amount",
          "type": "uint256"
        }
      ],
      "name": "decreaseIUSDDebt",
      "outputs": [],
      "stateMutability": "nonpayable",
      "type": "function"
    },
    {
      "inputs": [],
      "name": "getETHDeposited",
      "outputs": [
        {
          "internalType": "uint256",
          "name": "",
          "type": "uint256"
        }
      ],
      "stateMutability": "view",
      "type": "function"
    },
    {
      "inputs": [],
      "name": "getIUSDDebt",
      "outputs": [
        {
          "internalType": "uint256",
          "name": "",
          "type": "uint256"
        }
      ],
      "stateMutability": "view",
      "type": "function"
    },
    {
      "inputs": [
        {
          "internalType": "uint256",
          "name": "_amount",
          "type": "uint256"
        }
      ],
      "name": "increaseIUSDDebt",
      "outputs": [],
      "stateMutability": "nonpayable",
      "type": "function"
    },
    {
      "inputs": [],
      "name": "owner",
      "outputs": [
        {
          "internalType": "address",
          "name": "",
          "type": "address"
        }
      ],
      "stateMutability": "view",
      "type": "function"
    },
    {
      "inputs": [],
      "name": "primaryMarket",
      "outputs": [
        {
          "internalType": "contract PrimaryMarket",
          "name": "",
          "type": "address"
        }
      ],
      "stateMutability": "view",
      "type": "function"
    },
    {
      "inputs": [],
      "name": "renounceOwnership",
      "outputs": [],
      "stateMutability": "nonpayable",
      "type": "function"
    },
    {
      "inputs": [
        {
          "internalType": "address",
          "name": "_account",
          "type": "address"
        },
        {
          "internalType": "uint256",
          "name": "_amount",
          "type": "uint256"
        }
      ],
      "name": "sendETH",
      "outputs": [],
      "stateMutability": "nonpayable",
      "type": "function"
    },
    {
      "inputs": [
        {
          "internalType": "contract PrimaryMarket",
          "name": "_primaryMarket",
          "type": "address"
        },
        {
          "internalType": "contract VaultManager",
          "name": "_vaultManagerAddress",
          "type": "address"
        },
        {
          "internalType": "contract StableCoinPool",
          "name": "_stableCoinPoolAddress",
          "type": "address"
        }
      ],
      "name": "setAddresses",
      "outputs": [],
      "stateMutability": "nonpayable",
      "type": "function"
    },
    {
      "inputs": [],
      "name": "stableCoinPool",
      "outputs": [
        {
          "internalType": "contract StableCoinPool",
          "name": "",
          "type": "address"
        }
      ],
      "stateMutability": "view",
      "type": "function"
    },
    {
      "inputs": [
        {
          "internalType": "address",
          "name": "newOwner",
          "type": "address"
        }
      ],
      "name": "transferOwnership",
      "outputs": [],
      "stateMutability": "nonpayable",
      "type": "function"
    },
    {
      "inputs": [],
      "name": "vaultManager",
      "outputs": [
        {
          "internalType": "contract VaultManager",
          "name": "",
          "type": "address"
        }
      ],
      "stateMutability": "view",
      "type": "function"
    },
    {
      "stateMutability": "payable",
      "type": "receive"
    }
  ],
  "bytecode": "0x608060405234801561001057600080fd5b5061001a3361001f565b61006f565b600080546001600160a01b038381166001600160a01b0319831681178455604051919092169283917f8be0079c531659141344cd1fd0a4f28419497f9722a3daafe3b4186f6b6457e09190a35050565b6108288061007e6000396000f3fe6080604052600436106100ab5760003560e01c8063765a4d5911610064578063765a4d59146102155780638a4adf24146102345780638da5cb5b14610254578063d0d9ef2e14610272578063e012488514610292578063f2fde38b146102a757600080fd5b80631e77ceda14610141578063223b2b121461017e578063363bf964146101a057806337c34685146101c057806364a197f3146101e0578063715018a61461020057600080fd5b3661013c576001546001600160a01b031633146101295760405162461bcd60e51b815260206004820152603160248201527f52657365727665506f6f6c3a2043616c6c6572206973206e6f742074686520426044820152701bdc9c9bddda5b99c818dbdb9d1c9858dd607a1b60648201526084015b60405180910390fd5b346004546101379190610681565b600455005b600080fd5b34801561014d57600080fd5b50600154610161906001600160a01b031681565b6040516001600160a01b0390911681526020015b60405180910390f35b34801561018a57600080fd5b5061019e610199366004610699565b6102c7565b005b3480156101ac57600080fd5b5061019e6101bb3660046106c7565b61037a565b3480156101cc57600080fd5b50600354610161906001600160a01b031681565b3480156101ec57600080fd5b5061019e6101fb366004610712565b6103cc565b34801561020c57600080fd5b5061019e6104d2565b34801561022157600080fd5b506004545b604051908152602001610175565b34801561024057600080fd5b50600254610161906001600160a01b031681565b34801561026057600080fd5b506000546001600160a01b0316610161565b34801561027e57600080fd5b5061019e61028d366004610699565b6104e6565b34801561029e57600080fd5b50600554610226565b3480156102b357600080fd5b5061019e6102c236600461073e565b610548565b6001546001600160a01b03163314806102ea57506002546001600160a01b031633145b6103665760405162461bcd60e51b815260206004820152604160248201527f52657365727665506f6f6c3a2043616c6c6572206973206e6f7420746865204260448201527f6f72726f77696e67206f72205661756c744d616e6167657220636f6e747261636064820152601d60fa1b608482015260a401610120565b806005546103749190610681565b60055550565b6103826105c1565b600180546001600160a01b038086166001600160a01b0319928316179092556002805485841690831617905560038054928416929091169190911790556103c76104d2565b505050565b6001546001600160a01b03163314806103ef57506002546001600160a01b031633145b8061040457506003546001600160a01b031633145b6104205760405162461bcd60e51b815260040161012090610762565b8060045461042e91906107db565b6004556040516000906001600160a01b0384169083908381818185875af1925050503d806000811461047c576040519150601f19603f3d011682016040523d82523d6000602084013e610481565b606091505b50509050806103c75760405162461bcd60e51b815260206004820152601f60248201527f52657365727665506f6f6c3a2073656e64696e6720455448206661696c6564006044820152606401610120565b6104da6105c1565b6104e4600061061b565b565b6001546001600160a01b031633148061050957506002546001600160a01b031633145b8061051e57506003546001600160a01b031633145b61053a5760405162461bcd60e51b815260040161012090610762565b8060055461037491906107db565b6105506105c1565b6001600160a01b0381166105b55760405162461bcd60e51b815260206004820152602660248201527f4f776e61626c653a206e6577206f776e657220697320746865207a65726f206160448201526564647265737360d01b6064820152608401610120565b6105be8161061b565b50565b6000546001600160a01b031633146104e45760405162461bcd60e51b815260206004820181905260248201527f4f776e61626c653a2063616c6c6572206973206e6f7420746865206f776e65726044820152606401610120565b600080546001600160a01b038381166001600160a01b0319831681178455604051919092169283917f8be0079c531659141344cd1fd0a4f28419497f9722a3daafe3b4186f6b6457e09190a35050565b634e487b7160e01b600052601160045260246000fd5b600082198211156106945761069461066b565b500190565b6000602082840312156106ab57600080fd5b5035919050565b6001600160a01b03811681146105be57600080fd5b6000806000606084860312156106dc57600080fd5b83356106e7816106b2565b925060208401356106f7816106b2565b91506040840135610707816106b2565b809150509250925092565b6000806040838503121561072557600080fd5b8235610730816106b2565b946020939093013593505050565b60006020828403121561075057600080fd5b813561075b816106b2565b9392505050565b60208082526053908201527f52657365727665506f6f6c3a2043616c6c6572206973206e6f7420746865204260408201527f6f72726f77696e67206f72205661756c744d616e61676572206f7220537461626060820152721b1950dbda5b941bdbdb0818dbdb9d1c9858dd606a1b608082015260a00190565b6000828210156107ed576107ed61066b565b50039056fea2646970667358221220debcd8e43985f3535efc077834a68e58bf56db4f6acac155828e1294b5bac28864736f6c634300080a0033",
  "linkReferences": {},
  "deployedLinkReferences": {}
}