{
  "_format": "hh-sol-artifact-1",
  "contractName": "StableCoinPool",
  "sourceName": "contracts/markets/internal/pools/StableCoinPool.sol",
  "abi": [
    {
      "anonymous": false,
      "inputs": [
        {
          "indexed": true,
          "internalType": "address",
          "name": "previousOwner",
          "type": "address"
        },
        {
          "indexed": true,
          "internalType": "address",
          "name": "newOwner",
          "type": "address"
        }
      ],
      "name": "OwnershipTransferred",
      "type": "event"
    },
    {
      "inputs": [
        {
          "internalType": "uint256",
          "name": "_amount",
          "type": "uint256"
        }
      ],
      "name": "deposit",
      "outputs": [],
      "stateMutability": "nonpayable",
      "type": "function"
    },
    {
      "inputs": [
        {
          "internalType": "address",
          "name": "",
          "type": "address"
        }
      ],
      "name": "deposits",
      "outputs": [
        {
          "internalType": "uint256",
          "name": "",
          "type": "uint256"
        }
      ],
      "stateMutability": "view",
      "type": "function"
    },
    {
      "inputs": [],
      "name": "getETHDeposited",
      "outputs": [
        {
          "internalType": "uint256",
          "name": "",
          "type": "uint256"
        }
      ],
      "stateMutability": "view",
      "type": "function"
    },
    {
      "inputs": [],
      "name": "getTotalLUSDDeposits",
      "outputs": [
        {
          "internalType": "uint256",
          "name": "",
          "type": "uint256"
        }
      ],
      "stateMutability": "view",
      "type": "function"
    },
    {
      "inputs": [],
      "name": "iusdToken",
      "outputs": [
        {
          "internalType": "contract IdeaUSD",
          "name": "",
          "type": "address"
        }
      ],
      "stateMutability": "view",
      "type": "function"
    },
    {
      "inputs": [
        {
          "internalType": "uint256",
          "name": "_IUSDAmount",
          "type": "uint256"
        }
      ],
      "name": "offset",
      "outputs": [],
      "stateMutability": "nonpayable",
      "type": "function"
    },
    {
      "inputs": [],
      "name": "owner",
      "outputs": [
        {
          "internalType": "address",
          "name": "",
          "type": "address"
        }
      ],
      "stateMutability": "view",
      "type": "function"
    },
    {
      "inputs": [],
      "name": "renounceOwnership",
      "outputs": [],
      "stateMutability": "nonpayable",
      "type": "function"
    },
    {
      "inputs": [
        {
          "internalType": "contract IdeaUSD",
          "name": "_iusdToken",
          "type": "address"
        },
        {
          "internalType": "contract VaultManager",
          "name": "_vaultManager",
          "type": "address"
        }
      ],
      "name": "setAddresses",
      "outputs": [],
      "stateMutability": "nonpayable",
      "type": "function"
    },
    {
      "inputs": [
        {
          "internalType": "address",
          "name": "newOwner",
          "type": "address"
        }
      ],
      "name": "transferOwnership",
      "outputs": [],
      "stateMutability": "nonpayable",
      "type": "function"
    },
    {
      "inputs": [],
      "name": "vaultManager",
      "outputs": [
        {
          "internalType": "contract VaultManager",
          "name": "",
          "type": "address"
        }
      ],
      "stateMutability": "view",
      "type": "function"
    },
    {
      "stateMutability": "payable",
      "type": "receive"
    }
  ],
  "bytecode": "0x608060405234801561001057600080fd5b5061001a3361001f565b61006f565b600080546001600160a01b038381166001600160a01b0319831681178455604051919092169283917f8be0079c531659141344cd1fd0a4f28419497f9722a3daafe3b4186f6b6457e09190a35050565b6106ba8061007e6000396000f3fe6080604052600436106100a05760003560e01c806390107afe1161006457806390107afe146101a157806392003cec146101c15780639bf2f1ac146101e1578063b6b55f25146101f6578063f2fde38b14610216578063fc7e286d1461023657600080fd5b8063715018a6146100f0578063765a4d59146101075780638a4adf241461012b5780638b0bf23f146101635780638da5cb5b1461018357600080fd5b366100eb576002546001600160a01b031633146100d85760405162461bcd60e51b81526004016100cf90610548565b60405180910390fd5b346003546100e691906105a8565b600355005b600080fd5b3480156100fc57600080fd5b50610105610263565b005b34801561011357600080fd5b506003545b6040519081526020015b60405180910390f35b34801561013757600080fd5b5060025461014b906001600160a01b031681565b6040516001600160a01b039091168152602001610122565b34801561016f57600080fd5b5060015461014b906001600160a01b031681565b34801561018f57600080fd5b506000546001600160a01b031661014b565b3480156101ad57600080fd5b506101056101bc3660046105d5565b610277565b3480156101cd57600080fd5b506101056101dc36600461060e565b6102bb565b3480156101ed57600080fd5b50600454610118565b34801561020257600080fd5b5061010561021136600461060e565b61035f565b34801561022257600080fd5b50610105610231366004610627565b610425565b34801561024257600080fd5b50610118610251366004610627565b60056020526000908152604090205481565b61026b61049e565b61027560006104f8565b565b61027f61049e565b600180546001600160a01b038085166001600160a01b03199283161790925560028054928416929091169190911790556102b7610263565b5050565b6002546001600160a01b031633146102e55760405162461bcd60e51b81526004016100cf90610548565b806004546102f3919061064b565b6004908155600154604051632770a7eb60e21b81523092810192909252602482018390526001600160a01b031690639dc29fac90604401600060405180830381600087803b15801561034457600080fd5b505af1158015610358573d6000803e3d6000fd5b5050505050565b3360009081526005602052604090205461037a9082906105a8565b3360009081526005602052604081209190915560045461039b9083906105a8565b60048181556001546040516323b872dd60e01b81523392810192909252306024830152604482018590529192506001600160a01b03909116906323b872dd906064016020604051808303816000875af11580156103fc573d6000803e3d6000fd5b505050506040513d601f19601f820116820180604052508101906104209190610662565b505050565b61042d61049e565b6001600160a01b0381166104925760405162461bcd60e51b815260206004820152602660248201527f4f776e61626c653a206e6577206f776e657220697320746865207a65726f206160448201526564647265737360d01b60648201526084016100cf565b61049b816104f8565b50565b6000546001600160a01b031633146102755760405162461bcd60e51b815260206004820181905260248201527f4f776e61626c653a2063616c6c6572206973206e6f7420746865206f776e657260448201526064016100cf565b600080546001600160a01b038381166001600160a01b0319831681178455604051919092169283917f8be0079c531659141344cd1fd0a4f28419497f9722a3daafe3b4186f6b6457e09190a35050565b6020808252602a908201527f537461626c65436f696e506f6f6c3a2053656e646572206973206e6f742056616040820152693ab63a26b0b730b3b2b960b11b606082015260800190565b634e487b7160e01b600052601160045260246000fd5b600082198211156105bb576105bb610592565b500190565b6001600160a01b038116811461049b57600080fd5b600080604083850312156105e857600080fd5b82356105f3816105c0565b91506020830135610603816105c0565b809150509250929050565b60006020828403121561062057600080fd5b5035919050565b60006020828403121561063957600080fd5b8135610644816105c0565b9392505050565b60008282101561065d5761065d610592565b500390565b60006020828403121561067457600080fd5b8151801515811461064457600080fdfea26469706673582212207792309bc4649eda9c6d70708bcf694b5773a36d9761d44f4ba925e9c302406164736f6c634300080a0033",
  "linkReferences": {},
  "deployedLinkReferences": {}
}