{
  "_format": "hh-sol-artifact-1",
  "contractName": "SortedVaults",
  "sourceName": "contracts/markets/internal/cdp/SortedVaults.sol",
  "abi": [
    {
      "inputs": [
        {
          "internalType": "address",
          "name": "_primaryMarket",
          "type": "address"
        }
      ],
      "stateMutability": "nonpayable",
      "type": "constructor"
    },
    {
      "inputs": [
        {
          "internalType": "address",
          "name": "_id",
          "type": "address"
        }
      ],
      "name": "contains",
      "outputs": [
        {
          "internalType": "bool",
          "name": "",
          "type": "bool"
        }
      ],
      "stateMutability": "view",
      "type": "function"
    },
    {
      "inputs": [],
      "name": "data",
      "outputs": [
        {
          "internalType": "address",
          "name": "head",
          "type": "address"
        },
        {
          "internalType": "address",
          "name": "tail",
          "type": "address"
        },
        {
          "internalType": "uint256",
          "name": "maxSize",
          "type": "uint256"
        },
        {
          "internalType": "uint256",
          "name": "size",
          "type": "uint256"
        }
      ],
      "stateMutability": "view",
      "type": "function"
    },
    {
      "inputs": [
        {
          "internalType": "uint256",
          "name": "_NICR",
          "type": "uint256"
        }
      ],
      "name": "findInsertPosition",
      "outputs": [
        {
          "internalType": "address",
          "name": "",
          "type": "address"
        },
        {
          "internalType": "address",
          "name": "",
          "type": "address"
        }
      ],
      "stateMutability": "view",
      "type": "function"
    },
    {
      "inputs": [],
      "name": "getFirst",
      "outputs": [
        {
          "internalType": "address",
          "name": "",
          "type": "address"
        }
      ],
      "stateMutability": "view",
      "type": "function"
    },
    {
      "inputs": [],
      "name": "getLast",
      "outputs": [
        {
          "internalType": "address",
          "name": "",
          "type": "address"
        }
      ],
      "stateMutability": "view",
      "type": "function"
    },
    {
      "inputs": [],
      "name": "getMaxSize",
      "outputs": [
        {
          "internalType": "uint256",
          "name": "",
          "type": "uint256"
        }
      ],
      "stateMutability": "view",
      "type": "function"
    },
    {
      "inputs": [
        {
          "internalType": "address",
          "name": "_id",
          "type": "address"
        }
      ],
      "name": "getNext",
      "outputs": [
        {
          "internalType": "address",
          "name": "",
          "type": "address"
        }
      ],
      "stateMutability": "view",
      "type": "function"
    },
    {
      "inputs": [
        {
          "internalType": "address",
          "name": "_id",
          "type": "address"
        }
      ],
      "name": "getPrev",
      "outputs": [
        {
          "internalType": "address",
          "name": "",
          "type": "address"
        }
      ],
      "stateMutability": "view",
      "type": "function"
    },
    {
      "inputs": [],
      "name": "getSize",
      "outputs": [
        {
          "internalType": "uint256",
          "name": "",
          "type": "uint256"
        }
      ],
      "stateMutability": "view",
      "type": "function"
    },
    {
      "inputs": [
        {
          "internalType": "address",
          "name": "_id",
          "type": "address"
        },
        {
          "internalType": "uint256",
          "name": "_NICR",
          "type": "uint256"
        }
      ],
      "name": "insert",
      "outputs": [],
      "stateMutability": "nonpayable",
      "type": "function"
    },
    {
      "inputs": [],
      "name": "isEmpty",
      "outputs": [
        {
          "internalType": "bool",
          "name": "",
          "type": "bool"
        }
      ],
      "stateMutability": "view",
      "type": "function"
    },
    {
      "inputs": [],
      "name": "isFull",
      "outputs": [
        {
          "internalType": "bool",
          "name": "",
          "type": "bool"
        }
      ],
      "stateMutability": "view",
      "type": "function"
    },
    {
      "inputs": [],
      "name": "primaryMarket",
      "outputs": [
        {
          "internalType": "address",
          "name": "",
          "type": "address"
        }
      ],
      "stateMutability": "view",
      "type": "function"
    },
    {
      "inputs": [
        {
          "internalType": "address",
          "name": "_id",
          "type": "address"
        },
        {
          "internalType": "uint256",
          "name": "_newNICR",
          "type": "uint256"
        }
      ],
      "name": "reInsert",
      "outputs": [],
      "stateMutability": "nonpayable",
      "type": "function"
    },
    {
      "inputs": [
        {
          "internalType": "address",
          "name": "_id",
          "type": "address"
        }
      ],
      "name": "remove",
      "outputs": [],
      "stateMutability": "nonpayable",
      "type": "function"
    },
    {
      "inputs": [],
      "name": "vaultManager",
      "outputs": [
        {
          "internalType": "contract VaultManager",
          "name": "",
          "type": "address"
        }
      ],
      "stateMutability": "view",
      "type": "function"
    }
  ],
  "bytecode": "0x608060405234801561001057600080fd5b5060405161100138038061100183398101604081905261002f91610062565b600a600455600080546001600160a01b039092166001600160a01b03199283161790556001805490911633179055610092565b60006020828403121561007457600080fd5b81516001600160a01b038116811461008b57600080fd5b9392505050565b610f60806100a16000396000f3fe608060405234801561001057600080fd5b50600436106101005760003560e01c8063681fe70c11610097578063b72703ac11610066578063b72703ac14610276578063babd3d9a146102a5578063dd0c2015146102b1578063de8fa431146102e457600080fd5b8063681fe70c146101dc57806373d4a13a146101e5578063765e0159146102325780638a4adf241461026357600080fd5b806329092d0e116100d357806329092d0e1461016a5780634d6228311461017d5780635dbe47e81461018e57806363e1d57c146101ca57600080fd5b80630fd0ae101461010557806311c933391461011a5780631e2231431461012d5780631e77ceda14610157575b600080fd5b610118610113366004610e11565b6102ec565b005b610118610128366004610e11565b610342565b6002546001600160a01b03165b6040516001600160a01b0390911681526020015b60405180910390f35b60005461013a906001600160a01b031681565b610118610178366004610e3b565b610461565b6003546001600160a01b031661013a565b6101ba61019c366004610e3b565b6001600160a01b031660009081526006602052604090205460ff1690565b604051901515815260200161014e565b6004545b60405190815260200161014e565b600554156101ba565b600254600354600454600554610207936001600160a01b039081169316919084565b604080516001600160a01b03958616815294909316602085015291830152606082015260800161014e565b61013a610240366004610e3b565b6001600160a01b0390811660009081526006602052604090205461010090041690565b60015461013a906001600160a01b031681565b61013a610284366004610e3b565b6001600160a01b039081166000908152600660205260409020600101541690565b600454600554146101ba565b6102c46102bf366004610e56565b6104dc565b604080516001600160a01b0393841681529290911660208301520161014e565b6005546101ce565b6000546001600160a01b031633148061030f57506001546001600160a01b031633145b6103345760405162461bcd60e51b815260040161032b90610e6f565b60405180910390fd5b61033e82826104f1565b5050565b6000546001600160a01b031633148061036557506001546001600160a01b031633145b6103815760405162461bcd60e51b815260040161032b90610e6f565b6001600160a01b03821660009081526006602052604090205460ff166103fc5760405162461bcd60e51b815260206004820152602a60248201527f536f727465735661756c74733a204c69737420646f6573206e6f7420636f6e74604482015269185a5b881d1a19481a5960b21b606482015260840161032b565b600081116104585760405162461bcd60e51b815260206004820152602360248201527f536f727465735661756c74733a204e494352206d75737420626520706f73697460448201526269766560e81b606482015260840161032b565b61033482610860565b6001546001600160a01b031633146104d05760405162461bcd60e51b815260206004820152602c60248201527f536f727465645661756c74733a2043616c6c6572206973206e6f74207468652060448201526b2b30bab63a26b0b730b3b2b960a11b606482015260840161032b565b6104d981610860565b50565b6000806104e883610a84565b91509150915091565b60045460055414156105455760405162461bcd60e51b815260206004820152601a60248201527f536f727465645661756c74733a204c6973742069732066756c6c000000000000604482015260640161032b565b6001600160a01b03821660009081526006602052604090205460ff16156105c35760405162461bcd60e51b815260206004820152602c60248201527f536f727465645661756c74733a204c69737420616c726561647920636f6e746160448201526b696e7320746865206e6f646560a01b606482015260840161032b565b6001600160a01b0382166106195760405162461bcd60e51b815260206004820152601f60248201527f536f727465645661756c74733a2049642063616e6e6f74206265207a65726f00604482015260640161032b565b600081116106755760405162461bcd60e51b815260206004820152602360248201527f536f727465645661756c74733a204e494352206d75737420626520706f73697460448201526269766560e81b606482015260840161032b565b60008061068183610a84565b6001600160a01b038087166000908152600660205260409020805460ff19166001179055919350915082161580156106c057506001600160a01b038116155b156106f557600280546001600160a01b0386166001600160a01b03199182168117909255600380549091169091179055610849565b6001600160a01b03821661076957600280546001600160a01b03868116600081815260066020526040808220805495851661010002610100600160a81b0319909616959095179094558454909216825291902060010180546001600160a01b03199081168317909155825416179055610849565b6001600160a01b0381166107d957600380546001600160a01b0386811660008181526006602052604080822060010180549585166001600160a01b031996871617905585549093168152919091208054610100600160a81b03191661010083021790558254909116179055610849565b6001600160a01b038085166000818152600660205260408082208054858716610100818102610100600160a81b031993841617845560019384018054988b166001600160a01b0319998a168117909155865284862080549188029190931617909155835291200180549092161790555b600554610857906001610ee2565b60055550505050565b6001600160a01b03811660009081526006602052604090205460ff166108db5760405162461bcd60e51b815260206004820152602a60248201527f536f7274656454726f7665733a204c69737420646f6573206e6f7420636f6e74604482015269185a5b881d1a19481a5960b21b606482015260840161032b565b60055460011015610a1b576002546001600160a01b0382811691161415610948576001600160a01b0380821660009081526006602052604080822054600280546001600160a01b031990811661010090930490951691821790558252902060010180549091169055610a38565b6003546001600160a01b03828116911614156109ac576001600160a01b0380821660009081526006602052604080822060010154600380546001600160a01b03191691909416908117909355918152208054610100600160a81b0319169055610a38565b6001600160a01b038082166000908152600660205260408082208054600180830180548716865284862080546101009485900489168502610100600160a81b03199091161790555492549190910485168452919092200180546001600160a01b03191691909216179055610a38565b600280546001600160a01b03199081169091556003805490911690555b6001600160a01b038116600090815260066020526040902080546001600160a81b0319168155600190810180546001600160a01b0319169055600554610a7e9190610efa565b60055550565b60025460009081906104e89084906001600160a01b0316838060015460405163b0d8e18160e01b81526001600160a01b0385811660048301529091169063b0d8e18190602401602060405180830381865afa158015610ae7573d6000803e3d6000fd5b505050506040513d601f19601f82011682018060405250810190610b0b9190610f11565b8410610b1c57506000905081610ba3565b6001600160a01b038084166000908152600660205260409020548491610100909104165b6001600160a01b03821615801590610b605750610b5e868383610baa565b155b15610b9d57506001600160a01b03908116600090815260066020526040808220546101009081900484168084529190922054909291900416610b40565b90925090505b9250929050565b60006001600160a01b038316158015610bca57506001600160a01b038216155b15610bdb57600554155b9050610dee565b6001600160a01b038316610c7a576002546001600160a01b038381169116148015610bd4575060015460405163b0d8e18160e01b81526001600160a01b0384811660048301529091169063b0d8e181906024015b602060405180830381865afa158015610c4c573d6000803e3d6000fd5b505050506040513d601f19601f82011682018060405250810190610c709190610f11565b8410159050610dee565b6001600160a01b038216610d18576003546001600160a01b038481169116148015610bd4575060015460405163b0d8e18160e01b81526001600160a01b0385811660048301529091169063b0d8e18190602401602060405180830381865afa158015610cea573d6000803e3d6000fd5b505050506040513d601f19601f82011682018060405250810190610d0e9190610f11565b8411159050610dee565b6001600160a01b0383811660009081526006602052604090205461010090048116908316148015610db5575060015460405163b0d8e18160e01b81526001600160a01b0385811660048301528692169063b0d8e18190602401602060405180830381865afa158015610d8e573d6000803e3d6000fd5b505050506040513d601f19601f82011682018060405250810190610db29190610f11565b10155b8015610bd4575060015460405163b0d8e18160e01b81526001600160a01b0384811660048301529091169063b0d8e18190602401610c2f565b9392505050565b80356001600160a01b0381168114610e0c57600080fd5b919050565b60008060408385031215610e2457600080fd5b610e2d83610df5565b946020939093013593505050565b600060208284031215610e4d57600080fd5b610dee82610df5565b600060208284031215610e6857600080fd5b5035919050565b6020808252603e908201527f536f727465645661756c74733a2043616c6c6572206973206e6569746865722060408201527f5072696d6172794d61726b6574206e6f72205661756c744d616e616765720000606082015260800190565b634e487b7160e01b600052601160045260246000fd5b60008219821115610ef557610ef5610ecc565b500190565b600082821015610f0c57610f0c610ecc565b500390565b600060208284031215610f2357600080fd5b505191905056fea264697066735822122060ce17cc3ea4931a8fadd3e714396987e74b353a672c009006f0f256f027767d64736f6c634300080a0033",
  "linkReferences": {},
  "deployedLinkReferences": {}
}