{
  "_format": "hh-sol-artifact-1",
  "contractName": "PrimaryMarket",
  "sourceName": "contracts/PrimaryMarket.sol",
  "abi": [
    {
      "inputs": [],
      "stateMutability": "nonpayable",
      "type": "constructor"
    },
    {
      "anonymous": false,
      "inputs": [
        {
          "indexed": true,
          "internalType": "address",
          "name": "previousOwner",
          "type": "address"
        },
        {
          "indexed": true,
          "internalType": "address",
          "name": "newOwner",
          "type": "address"
        }
      ],
      "name": "OwnershipTransferred",
      "type": "event"
    },
    {
      "inputs": [],
      "name": "BETA",
      "outputs": [
        {
          "internalType": "uint256",
          "name": "",
          "type": "uint256"
        }
      ],
      "stateMutability": "view",
      "type": "function"
    },
    {
      "inputs": [],
      "name": "BORROWING_FEE_FLOOR",
      "outputs": [
        {
          "internalType": "uint256",
          "name": "",
          "type": "uint256"
        }
      ],
      "stateMutability": "view",
      "type": "function"
    },
    {
      "inputs": [],
      "name": "IUSD_GAS_COMPENSATION",
      "outputs": [
        {
          "internalType": "uint256",
          "name": "",
          "type": "uint256"
        }
      ],
      "stateMutability": "view",
      "type": "function"
    },
    {
      "inputs": [],
      "name": "MAX_BORROWING_FEE",
      "outputs": [
        {
          "internalType": "uint256",
          "name": "",
          "type": "uint256"
        }
      ],
      "stateMutability": "view",
      "type": "function"
    },
    {
      "inputs": [],
      "name": "MINIMUN_COLLATERAL_RATIO",
      "outputs": [
        {
          "internalType": "uint256",
          "name": "",
          "type": "uint256"
        }
      ],
      "stateMutability": "view",
      "type": "function"
    },
    {
      "inputs": [],
      "name": "MINUTE_DECAY_FACTOR",
      "outputs": [
        {
          "internalType": "uint256",
          "name": "",
          "type": "uint256"
        }
      ],
      "stateMutability": "view",
      "type": "function"
    },
    {
      "inputs": [],
      "name": "MIN_NET_DEBT",
      "outputs": [
        {
          "internalType": "uint256",
          "name": "",
          "type": "uint256"
        }
      ],
      "stateMutability": "view",
      "type": "function"
    },
    {
      "inputs": [],
      "name": "NICR_PRECISION",
      "outputs": [
        {
          "internalType": "uint256",
          "name": "",
          "type": "uint256"
        }
      ],
      "stateMutability": "view",
      "type": "function"
    },
    {
      "inputs": [],
      "name": "ONE_HUNDRED_PERCENT",
      "outputs": [
        {
          "internalType": "uint256",
          "name": "",
          "type": "uint256"
        }
      ],
      "stateMutability": "view",
      "type": "function"
    },
    {
      "inputs": [],
      "name": "PERCENT_DIVISOR",
      "outputs": [
        {
          "internalType": "uint256",
          "name": "",
          "type": "uint256"
        }
      ],
      "stateMutability": "view",
      "type": "function"
    },
    {
      "inputs": [],
      "name": "REDEMPTION_FEE_FLOOR",
      "outputs": [
        {
          "internalType": "uint256",
          "name": "",
          "type": "uint256"
        }
      ],
      "stateMutability": "view",
      "type": "function"
    },
    {
      "inputs": [],
      "name": "SECONDS_IN_ONE_MINUTE",
      "outputs": [
        {
          "internalType": "uint256",
          "name": "",
          "type": "uint256"
        }
      ],
      "stateMutability": "view",
      "type": "function"
    },
    {
      "inputs": [],
      "name": "gasPool",
      "outputs": [
        {
          "internalType": "contract GasPool",
          "name": "",
          "type": "address"
        }
      ],
      "stateMutability": "view",
      "type": "function"
    },
    {
      "inputs": [],
      "name": "iusdToken",
      "outputs": [
        {
          "internalType": "contract IdeaUSD",
          "name": "",
          "type": "address"
        }
      ],
      "stateMutability": "view",
      "type": "function"
    },
    {
      "inputs": [
        {
          "internalType": "uint256",
          "name": "_IUSDAmount",
          "type": "uint256"
        }
      ],
      "name": "mint",
      "outputs": [],
      "stateMutability": "payable",
      "type": "function"
    },
    {
      "inputs": [],
      "name": "owner",
      "outputs": [
        {
          "internalType": "address",
          "name": "",
          "type": "address"
        }
      ],
      "stateMutability": "view",
      "type": "function"
    },
    {
      "inputs": [],
      "name": "priceFeed",
      "outputs": [
        {
          "internalType": "contract PriceFeed",
          "name": "",
          "type": "address"
        }
      ],
      "stateMutability": "view",
      "type": "function"
    },
    {
      "inputs": [],
      "name": "redeem",
      "outputs": [],
      "stateMutability": "nonpayable",
      "type": "function"
    },
    {
      "inputs": [],
      "name": "renounceOwnership",
      "outputs": [],
      "stateMutability": "nonpayable",
      "type": "function"
    },
    {
      "inputs": [],
      "name": "repay",
      "outputs": [],
      "stateMutability": "nonpayable",
      "type": "function"
    },
    {
      "inputs": [],
      "name": "reservePool",
      "outputs": [
        {
          "internalType": "contract ReservePool",
          "name": "",
          "type": "address"
        }
      ],
      "stateMutability": "view",
      "type": "function"
    },
    {
      "inputs": [],
      "name": "stableCoinPool",
      "outputs": [
        {
          "internalType": "contract StableCoinPool",
          "name": "",
          "type": "address"
        }
      ],
      "stateMutability": "view",
      "type": "function"
    },
    {
      "inputs": [],
      "name": "stakingPool",
      "outputs": [
        {
          "internalType": "contract StakingPool",
          "name": "",
          "type": "address"
        }
      ],
      "stateMutability": "view",
      "type": "function"
    },
    {
      "inputs": [
        {
          "internalType": "address",
          "name": "newOwner",
          "type": "address"
        }
      ],
      "name": "transferOwnership",
      "outputs": [],
      "stateMutability": "nonpayable",
      "type": "function"
    },
    {
      "inputs": [],
      "name": "vaultManager",
      "outputs": [
        {
          "internalType": "contract VaultManager",
          "name": "",
          "type": "address"
        }
      ],
      "stateMutability": "view",
      "type": "function"
    }
  ],
  "bytecode": "0x60806040523480156200001157600080fd5b506200001d3362000498565b6040516200002b90620004e8565b604051809103906000f08015801562000048573d6000803e3d6000fd5b50600180546001600160a01b0319166001600160a01b039290921691821790556040516391b7f5ed60e01b8152683635c9adc5dea0000060048201526391b7f5ed90602401600060405180830381600087803b158015620000a857600080fd5b505af1158015620000bd573d6000803e3d6000fd5b50505050604051620000cf90620004f5565b604051809103906000f080158015620000ec573d6000803e3d6000fd5b50600480546001600160a01b0319166001600160a01b03929092169190911790556040516200011b9062000503565b604051809103906000f08015801562000138573d6000803e3d6000fd5b50600580546001600160a01b0319166001600160a01b0392909216919091179055604051620001679062000511565b604051809103906000f08015801562000184573d6000803e3d6000fd5b50600680546001600160a01b0319166001600160a01b0392909216919091179055604051620001b3906200051e565b604051809103906000f080158015620001d0573d6000803e3d6000fd5b50600780546001600160a01b0319166001600160a01b0392909216919091179055604051620001ff906200052c565b604051809103906000f0801580156200021c573d6000803e3d6000fd5b50600280546001600160a01b0319166001600160a01b039283169081179091556005546040519192169062000251906200053a565b6001600160a01b03928316815291166020820152604001604051809103906000f08015801562000285573d6000803e3d6000fd5b50600380546001600160a01b0319166001600160a01b0392831617905560048054600254600554604051630d8efe5960e21b815230948101949094529084166024840152831660448301529091169063363bf96490606401600060405180830381600087803b158015620002f857600080fd5b505af11580156200030d573d6000803e3d6000fd5b50506005546003546002546040516348083d7f60e11b81526001600160a01b0392831660048201529082166024820152911692506390107afe9150604401600060405180830381600087803b1580156200036657600080fd5b505af11580156200037b573d6000803e3d6000fd5b505060075460048054600254604051630d8efe5960e21b815230938101939093526001600160a01b03918216602484015281166044830152909116925063363bf9649150606401600060405180830381600087803b158015620003dd57600080fd5b505af1158015620003f2573d6000803e3d6000fd5b505060025460015460035460055460065460075460048054604051636cfb6bf960e01b81526001600160a01b03978816928101929092529486166024820152928516604484015290841660648301528316608482015290821660a482015291169250636cfb6bf9915060c401600060405180830381600087803b1580156200047957600080fd5b505af11580156200048e573d6000803e3d6000fd5b5050505062000548565b600080546001600160a01b038381166001600160a01b0319831681178455604051919092169283917f8be0079c531659141344cd1fd0a4f28419497f9722a3daafe3b4186f6b6457e09190a35050565b60ca80620019bf83390190565b6108b28062001a8983390190565b610738806200233b83390190565b605c8062002a7383390190565b6106458062002acf83390190565b613082806200311483390190565b610e8e806200619683390190565b61146780620005586000396000f3fe6080604052600436106101665760003560e01c8063715018a6116100d1578063be040fb01161008a578063ecf3511811610064578063ecf35118146103ba578063f2fde38b146103d6578063f92d34331461021d578063fa08b038146103f657600080fd5b8063be040fb014610373578063c7b5548114610382578063dd0081c71461039e57600080fd5b8063715018a6146102cd578063741bef1a146102e25780638a4adf24146103025780638b0bf23f146103225780638da5cb5b14610342578063a0712d681461036057600080fd5b806331cde7471161012357806331cde7471461023257806335d7484e1461024f57806337c346851461026c578063402d88831461028c5780634870dd9a146102a357806361ec893d146102b857600080fd5b80630266f0441461016b578063071a7541146101a85780630c56ae3b146101cb5780631bf43555146101eb578063240926691461020857806328d28b5b1461021d575b600080fd5b34801561017757600080fd5b5060045461018b906001600160a01b031681565b6040516001600160a01b0390911681526020015b60405180910390f35b3480156101b457600080fd5b506101bd600281565b60405190815260200161019f565b3480156101d757600080fd5b5060075461018b906001600160a01b031681565b3480156101f757600080fd5b506101bd686194049f30f720000081565b34801561021457600080fd5b506101bd610416565b34801561022957600080fd5b506101bd610437565b34801561023e57600080fd5b506101bd68056bc75e2d6310000081565b34801561025b57600080fd5b506101bd680ad78ebc5ac620000081565b34801561027857600080fd5b5060055461018b906001600160a01b031681565b34801561029857600080fd5b506102a161044b565b005b3480156102af57600080fd5b506101bd60c881565b3480156102c457600080fd5b506101bd603c81565b3480156102d957600080fd5b506102a1610455565b3480156102ee57600080fd5b5060015461018b906001600160a01b031681565b34801561030e57600080fd5b5060025461018b906001600160a01b031681565b34801561032e57600080fd5b5060035461018b906001600160a01b031681565b34801561034e57600080fd5b506000546001600160a01b031661018b565b6102a161036e3660046112a4565b610467565b34801561037f57600080fd5b50005b34801561038e57600080fd5b506101bd670ddd4b8c6c7d70d881565b3480156103aa57600080fd5b506101bd670de0b6b3a764000081565b3480156103c657600080fd5b506101bd670f43fc2c04ee000081565b3480156103e257600080fd5b506102a16103f13660046112bd565b610473565b34801561040257600080fd5b5060065461018b906001600160a01b031681565b6104296064670de0b6b3a7640000611303565b610434906005611325565b81565b6104296103e8670de0b6b3a7640000611303565b6104536104ee565b565b61045d61091c565b6104536000610976565b610470816109c6565b50565b61047b61091c565b6001600160a01b0381166104e55760405162461bcd60e51b815260206004820152602660248201527f4f776e61626c653a206e6577206f776e657220697320746865207a65726f206160448201526564647265737360d01b60648201526084015b60405180910390fd5b61047081610976565b600254604051630a843a2960e21b81523360048201526000916001600160a01b031690632a10e8a490602401602060405180830381865afa158015610537573d6000803e3d6000fd5b505050506040513d601f19601f8201168201806040525081019061055b9190611344565b60025460405163c0af0d3b60e01b81523360048201529192506000916001600160a01b039091169063c0af0d3b90602401602060405180830381865afa1580156105a9573d6000803e3d6000fd5b505050506040513d601f19601f820116820180604052508101906105cd9190611344565b905060006105e4680ad78ebc5ac62000008361135d565b6003546040516370a0823160e01b815233600482015291925082916001600160a01b03909116906370a0823190602401602060405180830381865afa158015610631573d6000803e3d6000fd5b505050506040513d601f19601f820116820180604052508101906106559190611344565b10156106be5760405162461bcd60e51b815260206004820152603260248201527f426f72726f77657220646f65736e74206861766520656e6f7567682049555344604482015271081d1bc81b585ad9481c995c185e5b595b9d60721b60648201526084016104dc565b60025460405163c99cb2b760e01b81523360048201526001600160a01b039091169063c99cb2b790602401600060405180830381600087803b15801561070357600080fd5b505af1158015610717573d6000803e3d6000fd5b5050600354604051632770a7eb60e21b8152336004820152602481018590526001600160a01b039091169250639dc29fac9150604401600060405180830381600087803b15801561076757600080fd5b505af115801561077b573d6000803e3d6000fd5b50506004805460405163686cf79760e11b81529182018590526001600160a01b0316925063d0d9ef2e9150602401600060405180830381600087803b1580156107c357600080fd5b505af11580156107d7573d6000803e3d6000fd5b5050600354600654604051632770a7eb60e21b81526001600160a01b039182166004820152680ad78ebc5ac6200000602482015291169250639dc29fac9150604401600060405180830381600087803b15801561083357600080fd5b505af1158015610847573d6000803e3d6000fd5b50506004805460405163686cf79760e11b8152680ad78ebc5ac6200000928101929092526001600160a01b0316925063d0d9ef2e9150602401600060405180830381600087803b15801561089a57600080fd5b505af11580156108ae573d6000803e3d6000fd5b50506004805460405163b009872960e01b81523392810192909252602482018790526001600160a01b0316925063b00987299150604401600060405180830381600087803b1580156108ff57600080fd5b505af1158015610913573d6000803e3d6000fd5b50505050505050565b6000546001600160a01b031633146104535760405162461bcd60e51b815260206004820181905260248201527f4f776e61626c653a2063616c6c6572206973206e6f7420746865206f776e657260448201526064016104dc565b600080546001600160a01b038381166001600160a01b0319831681178455604051919092169283917f8be0079c531659141344cd1fd0a4f28419497f9722a3daafe3b4186f6b6457e09190a35050565b60006109da670de0b6b3a764000083611325565b60015460408051634c6afee560e11b8152905192935083926000926001600160a01b0316916398d5fdca9160048083019260209291908290030181865afa158015610a29573d6000803e3d6000fd5b505050506040513d601f19601f82011682018060405250810190610a4d9190611344565b9050610a7960405180604001604052806008815260200167507269636520257360c01b815250826110cb565b600082610a868334611325565b610a909190611303565b9050610ac660405180604001604052806012815260200171636f6c6c61746572616c526174696f20257360701b815250826110cb565b610acf81611114565b600260009054906101000a90046001600160a01b03166001600160a01b0316635dba4c4a6040518163ffffffff1660e01b8152600401600060405180830381600087803b158015610b1f57600080fd5b505af1158015610b33573d6000803e3d6000fd5b50505050610b6d6040518060400160405280601581526020017441667465722064656361792062617365207261746560581b815250611184565b600254604051630631203b60e41b8152600481018690526000916001600160a01b03169063631203b090602401602060405180830381865afa158015610bb7573d6000803e3d6000fd5b505050506040513d601f19601f82011682018060405250810190610bdb9190611344565b9050610c0e6040518060400160405280600f81526020016e626f72726f77696e6746656520257360881b815250826110cb565b6007546040516369b1e6a160e01b8152600481018390526001600160a01b03909116906369b1e6a190602401600060405180830381600087803b158015610c5457600080fd5b505af1158015610c68573d6000803e3d6000fd5b50506003546007546040516340c10f1960e01b81526001600160a01b03918216600482015260248101869052911692506340c10f199150604401600060405180830381600087803b158015610cbc57600080fd5b505af1158015610cd0573d6000803e3d6000fd5b50505050600081680ad78ebc5ac620000086610cec9190611374565b610cf69190611374565b9050610d2a6040518060400160405280601081526020016f636f6d706f736974654465627420257360801b815250826110cb565b60025460405163050d23c760e41b815233600482015234602482015260448101839052600160648201526001600160a01b03909116906350d23c7090608401600060405180830381600087803b158015610d8357600080fd5b505af1158015610d97573d6000803e3d6000fd5b50505050610da4346111c7565b610e3060405180606001604052806023815260200161140f602391396004805460408051632395793360e01b815290516001600160a01b039092169263239579339282820192602092908290030181865afa158015610e07573d6000803e3d6000fd5b505050506040513d601f19601f82011682018060405250810190610e2b9190611344565b6110cb565b6003546040516340c10f1960e01b8152336004820152602481018890526001600160a01b03909116906340c10f1990604401600060405180830381600087803b158015610e7c57600080fd5b505af1158015610e90573d6000803e3d6000fd5b5050604080518082018252601681527542616c616e6365206f6620626f72726f77657220257360501b602082015260035491516370a0823160e01b8152336004820152610f0e94509092506001600160a01b03909116906370a08231906024015b602060405180830381865afa158015610e07573d6000803e3d6000fd5b6003546006546040516340c10f1960e01b81526001600160a01b039182166004820152680ad78ebc5ac620000060248201529116906340c10f1990604401600060405180830381600087803b158015610f6657600080fd5b505af1158015610f7a573d6000803e3d6000fd5b5050604080518082018252601481527367617320636f6d70656e736174696f6e7320257360601b602082015260035460065492516370a0823160e01b81526001600160a01b039384166004820152610fe3955091935091909116906370a0823190602401610ef1565b6004805460405163111d958960e11b81529182018390526001600160a01b03169063223b2b1290602401600060405180830381600087803b15801561102757600080fd5b505af115801561103b573d6000803e3d6000fd5b505050506109136040518060400160405280601881526020017f52657365727665506f6f6c204955534420446562742025730000000000000000815250600460009054906101000a90046001600160a01b03166001600160a01b031663e01248856040518163ffffffff1660e01b8152600401602060405180830381865afa158015610e07573d6000803e3d6000fd5b61111082826040516024016110e19291906113d9565b60408051601f198184030181529190526020810180516001600160e01b03166309710a9d60e41b179052611283565b5050565b670f43fc2c04ee00008110156104705760405162461bcd60e51b815260206004820152602f60248201527f436f6c6c61746572616c20526174696f2042656c6f77204d494e494d554e5f4360448201526e4f4c4c41544552414c5f524154494f60881b60648201526084016104dc565b6104708160405160240161119891906113fb565b60408051601f198184030181529190526020810180516001600160e01b031663104c13eb60e21b179052611283565b6004546040516000916001600160a01b03169083908381818185875af1925050503d8060008114611214576040519150601f19603f3d011682016040523d82523d6000602084013e611219565b606091505b50509050806111105760405162461bcd60e51b815260206004820152603060248201527f426f72726f77696e673a2053656e64696e67205265736572766520746f20526560448201526f1cd95c9d99541bdbdb0819985a5b195960821b60648201526084016104dc565b80516a636f6e736f6c652e6c6f67602083016000808483855afa5050505050565b6000602082840312156112b657600080fd5b5035919050565b6000602082840312156112cf57600080fd5b81356001600160a01b03811681146112e657600080fd5b9392505050565b634e487b7160e01b600052601160045260246000fd5b60008261132057634e487b7160e01b600052601260045260246000fd5b500490565b600081600019048311821515161561133f5761133f6112ed565b500290565b60006020828403121561135657600080fd5b5051919050565b60008282101561136f5761136f6112ed565b500390565b60008219821115611387576113876112ed565b500190565b6000815180845260005b818110156113b257602081850181015186830182015201611396565b818111156113c4576000602083870101525b50601f01601f19169290920160200192915050565b6040815260006113ec604083018561138c565b90508260208301529392505050565b6020815260006112e6602083018461138c56fe52657365727665506f6f6c20436f6c6c61746572616c204465706f7369746564202573a2646970667358221220db359f8726e0bd16bba7ba91ad3058705048374c337910d21d7c5b6cedc2d4d364736f6c634300080a00336080604052348015600f57600080fd5b5060ac8061001e6000396000f3fe6080604052348015600f57600080fd5b506004361060325760003560e01c806391b7f5ed14603757806398d5fdca146049575b600080fd5b60476042366004605e565b600055565b005b60005460405190815260200160405180910390f35b600060208284031215606f57600080fd5b503591905056fea264697066735822122067cd944143df6de0795ca63f12050a05598848e0fc2d1c4fae77cb0d35a4e79c64736f6c634300080a0033608060405234801561001057600080fd5b5061001a3361001f565b61006f565b600080546001600160a01b038381166001600160a01b0319831681178455604051919092169283917f8be0079c531659141344cd1fd0a4f28419497f9722a3daafe3b4186f6b6457e09190a35050565b6108348061007e6000396000f3fe6080604052600436106100ab5760003560e01c80638a4adf24116100645780638a4adf24146102145780638da5cb5b14610234578063b009872914610252578063d0d9ef2e14610272578063e012488514610292578063f2fde38b146102a757600080fd5b80631e77ceda14610141578063223b2b121461017e57806323957933146101a0578063363bf964146101bf57806337c34685146101df578063715018a6146101ff57600080fd5b3661013c576001546001600160a01b031633146101295760405162461bcd60e51b815260206004820152603160248201527f52657365727665506f6f6c3a2043616c6c6572206973206e6f742074686520426044820152701bdc9c9bddda5b99c818dbdb9d1c9858dd607a1b60648201526084015b60405180910390fd5b34600454610137919061068d565b600455005b600080fd5b34801561014d57600080fd5b50600154610161906001600160a01b031681565b6040516001600160a01b0390911681526020015b60405180910390f35b34801561018a57600080fd5b5061019e6101993660046106a5565b6102c7565b005b3480156101ac57600080fd5b506004545b604051908152602001610175565b3480156101cb57600080fd5b5061019e6101da3660046106d3565b61037a565b3480156101eb57600080fd5b50600354610161906001600160a01b031681565b34801561020b57600080fd5b5061019e6103cc565b34801561022057600080fd5b50600254610161906001600160a01b031681565b34801561024057600080fd5b506000546001600160a01b0316610161565b34801561025e57600080fd5b5061019e61026d36600461071e565b6103e0565b34801561027e57600080fd5b5061019e61028d3660046106a5565b6104f2565b34801561029e57600080fd5b506005546101b1565b3480156102b357600080fd5b5061019e6102c236600461074a565b610554565b6001546001600160a01b03163314806102ea57506002546001600160a01b031633145b6103665760405162461bcd60e51b815260206004820152604160248201527f52657365727665506f6f6c3a2043616c6c6572206973206e6f7420746865204260448201527f6f72726f77696e67206f72205661756c744d616e6167657220636f6e747261636064820152601d60fa1b608482015260a401610120565b80600554610374919061068d565b60055550565b6103826105cd565b600180546001600160a01b038086166001600160a01b0319928316179092556002805485841690831617905560038054928416929091169190911790556103c76103cc565b505050565b6103d46105cd565b6103de6000610627565b565b6001546001600160a01b031633148061040357506002546001600160a01b031633145b8061041857506003546001600160a01b031633145b6104345760405162461bcd60e51b81526004016101209061076e565b8060045461044291906107e7565b6004556040516000906001600160a01b0384169083908381818185875af1925050503d8060008114610490576040519150601f19603f3d011682016040523d82523d6000602084013e610495565b606091505b50509050806103c75760405162461bcd60e51b815260206004820152602360248201527f52657365727665506f6f6c3a2073656e64696e672052657365727665206661696044820152621b195960ea1b6064820152608401610120565b6001546001600160a01b031633148061051557506002546001600160a01b031633145b8061052a57506003546001600160a01b031633145b6105465760405162461bcd60e51b81526004016101209061076e565b8060055461037491906107e7565b61055c6105cd565b6001600160a01b0381166105c15760405162461bcd60e51b815260206004820152602660248201527f4f776e61626c653a206e6577206f776e657220697320746865207a65726f206160448201526564647265737360d01b6064820152608401610120565b6105ca81610627565b50565b6000546001600160a01b031633146103de5760405162461bcd60e51b815260206004820181905260248201527f4f776e61626c653a2063616c6c6572206973206e6f7420746865206f776e65726044820152606401610120565b600080546001600160a01b038381166001600160a01b0319831681178455604051919092169283917f8be0079c531659141344cd1fd0a4f28419497f9722a3daafe3b4186f6b6457e09190a35050565b634e487b7160e01b600052601160045260246000fd5b600082198211156106a0576106a0610677565b500190565b6000602082840312156106b757600080fd5b5035919050565b6001600160a01b03811681146105ca57600080fd5b6000806000606084860312156106e857600080fd5b83356106f3816106be565b92506020840135610703816106be565b91506040840135610713816106be565b809150509250925092565b6000806040838503121561073157600080fd5b823561073c816106be565b946020939093013593505050565b60006020828403121561075c57600080fd5b8135610767816106be565b9392505050565b60208082526053908201527f52657365727665506f6f6c3a2043616c6c6572206973206e6f7420746865204260408201527f6f72726f77696e67206f72205661756c744d616e61676572206f7220537461626060820152721b1950dbda5b941bdbdb0818dbdb9d1c9858dd606a1b608082015260a00190565b6000828210156107f9576107f9610677565b50039056fea2646970667358221220ea4b25b968fdf9d907299c2786aaff79980565aba2c0f5b7776f193c8476bdb364736f6c634300080a0033608060405234801561001057600080fd5b5061001a3361001f565b61006f565b600080546001600160a01b038381166001600160a01b0319831681178455604051919092169283917f8be0079c531659141344cd1fd0a4f28419497f9722a3daafe3b4186f6b6457e09190a35050565b6106ba8061007e6000396000f3fe6080604052600436106100a05760003560e01c80638da5cb5b116100645780638da5cb5b1461019857806390107afe146101b657806392003cec146101d6578063b6b55f25146101f6578063f2fde38b14610216578063fc7e286d1461023657600080fd5b806323957933146100f0578063715018a61461011457806374b908d71461012b5780638a4adf24146101405780638b0bf23f1461017857600080fd5b366100eb576002546001600160a01b031633146100d85760405162461bcd60e51b81526004016100cf90610548565b60405180910390fd5b346003546100e691906105a8565b600355005b600080fd5b3480156100fc57600080fd5b506003545b6040519081526020015b60405180910390f35b34801561012057600080fd5b50610129610263565b005b34801561013757600080fd5b50600454610101565b34801561014c57600080fd5b50600254610160906001600160a01b031681565b6040516001600160a01b03909116815260200161010b565b34801561018457600080fd5b50600154610160906001600160a01b031681565b3480156101a457600080fd5b506000546001600160a01b0316610160565b3480156101c257600080fd5b506101296101d13660046105d5565b610277565b3480156101e257600080fd5b506101296101f136600461060e565b6102bb565b34801561020257600080fd5b5061012961021136600461060e565b61035f565b34801561022257600080fd5b50610129610231366004610627565b610425565b34801561024257600080fd5b50610101610251366004610627565b60056020526000908152604090205481565b61026b61049e565b61027560006104f8565b565b61027f61049e565b600180546001600160a01b038085166001600160a01b03199283161790925560028054928416929091169190911790556102b7610263565b5050565b6002546001600160a01b031633146102e55760405162461bcd60e51b81526004016100cf90610548565b806004546102f3919061064b565b6004908155600154604051632770a7eb60e21b81523092810192909252602482018390526001600160a01b031690639dc29fac90604401600060405180830381600087803b15801561034457600080fd5b505af1158015610358573d6000803e3d6000fd5b5050505050565b3360009081526005602052604090205461037a9082906105a8565b3360009081526005602052604081209190915560045461039b9083906105a8565b60048181556001546040516323b872dd60e01b81523392810192909252306024830152604482018590529192506001600160a01b03909116906323b872dd906064016020604051808303816000875af11580156103fc573d6000803e3d6000fd5b505050506040513d601f19601f820116820180604052508101906104209190610662565b505050565b61042d61049e565b6001600160a01b0381166104925760405162461bcd60e51b815260206004820152602660248201527f4f776e61626c653a206e6577206f776e657220697320746865207a65726f206160448201526564647265737360d01b60648201526084016100cf565b61049b816104f8565b50565b6000546001600160a01b031633146102755760405162461bcd60e51b815260206004820181905260248201527f4f776e61626c653a2063616c6c6572206973206e6f7420746865206f776e657260448201526064016100cf565b600080546001600160a01b038381166001600160a01b0319831681178455604051919092169283917f8be0079c531659141344cd1fd0a4f28419497f9722a3daafe3b4186f6b6457e09190a35050565b6020808252602a908201527f537461626c65436f696e506f6f6c3a2053656e646572206973206e6f742056616040820152693ab63a26b0b730b3b2b960b11b606082015260800190565b634e487b7160e01b600052601160045260246000fd5b600082198211156105bb576105bb610592565b500190565b6001600160a01b038116811461049b57600080fd5b600080604083850312156105e857600080fd5b82356105f3816105c0565b91506020830135610603816105c0565b809150509250929050565b60006020828403121561062057600080fd5b5035919050565b60006020828403121561063957600080fd5b8135610644816105c0565b9392505050565b60008282101561065d5761065d610592565b500390565b60006020828403121561067457600080fd5b8151801515811461064457600080fdfea264697066735822122090719ee18637ea9d98d0746ec4e473af495043939bbe85d2fea166987fc7278964736f6c634300080a00336080604052348015600f57600080fd5b50603f80601d6000396000f3fe6080604052600080fdfea2646970667358221220172995892c04853c3dfda670823a90ac174ce55ca93f0e5a1bda4decf3aac7e764736f6c634300080a0033608060405234801561001057600080fd5b5061001a3361001f565b61006f565b600080546001600160a01b038381166001600160a01b0319831681178455604051919092169283917f8be0079c531659141344cd1fd0a4f28419497f9722a3daafe3b4186f6b6457e09190a35050565b6105c78061007e6000396000f3fe60806040526004361061008a5760003560e01c8063715018a611610059578063715018a6146101a557806373ad1225146101ba5780638da5cb5b146101de578063af13a8c3146101fc578063f2fde38b1461021257600080fd5b80631b462506146101085780631e77ceda14610128578063363bf9641461016557806369b1e6a11461018557600080fd5b36610103576004546001600160a01b031633146101015760405162461bcd60e51b815260206004820152602a60248201527f5374616b696e67506f6f6c3a2043616c6c6572206973206e6f74207468652052604482015269195cd95c9d99541bdbdb60b21b60648201526084015b60405180910390fd5b005b600080fd5b34801561011457600080fd5b506101016101233660046104ce565b610232565b34801561013457600080fd5b50600354610148906001600160a01b031681565b6040516001600160a01b0390911681526020015b60405180910390f35b34801561017157600080fd5b506101016101803660046104fc565b6102bd565b34801561019157600080fd5b506101016101a03660046104ce565b61030f565b3480156101b157600080fd5b50610101610397565b3480156101c657600080fd5b506101d060025481565b60405190815260200161015c565b3480156101ea57600080fd5b506000546001600160a01b0316610148565b34801561020857600080fd5b506101d060015481565b34801561021e57600080fd5b5061010161022d366004610547565b6103ab565b6005546001600160a01b031633146102a95760405162461bcd60e51b815260206004820152603460248201527f5374616b696e67506f6f6c3a2043616c6c6572206973206e6f74207468652056604482015273185d5b1d13585b9859d95c8818dbdb9d1c9858dd60621b60648201526084016100f8565b806001546102b7919061056b565b60015550565b6102c5610424565b600380546001600160a01b038086166001600160a01b03199283161790925560048054858416908316179055600580549284169290911691909117905561030a610397565b505050565b6003546001600160a01b031633146103835760405162461bcd60e51b815260206004820152603160248201527f5374616b696e67506f6f6c3a2043616c6c6572206973206e6f742074686520426044820152701bdc9c9bddda5b99c818dbdb9d1c9858dd607a1b60648201526084016100f8565b80600254610391919061056b565b60025550565b61039f610424565b6103a9600061047e565b565b6103b3610424565b6001600160a01b0381166104185760405162461bcd60e51b815260206004820152602660248201527f4f776e61626c653a206e6577206f776e657220697320746865207a65726f206160448201526564647265737360d01b60648201526084016100f8565b6104218161047e565b50565b6000546001600160a01b031633146103a95760405162461bcd60e51b815260206004820181905260248201527f4f776e61626c653a2063616c6c6572206973206e6f7420746865206f776e657260448201526064016100f8565b600080546001600160a01b038381166001600160a01b0319831681178455604051919092169283917f8be0079c531659141344cd1fd0a4f28419497f9722a3daafe3b4186f6b6457e09190a35050565b6000602082840312156104e057600080fd5b5035919050565b6001600160a01b038116811461042157600080fd5b60008060006060848603121561051157600080fd5b833561051c816104e7565b9250602084013561052c816104e7565b9150604084013561053c816104e7565b809150509250925092565b60006020828403121561055957600080fd5b8135610564816104e7565b9392505050565b6000821982111561058c57634e487b7160e01b600052601160045260246000fd5b50019056fea264697066735822122056ba21df2e8f69d77985ff64f14dbfa0341ee1fff2e0e23611ea88442686581a64736f6c634300080a0033608060405234801561001057600080fd5b5061001a3361001f565b61006f565b600080546001600160a01b038381166001600160a01b0319831681178455604051919092169283917f8be0079c531659141344cd1fd0a4f28419497f9722a3daafe3b4186f6b6457e09190a35050565b6130048061007e6000396000f3fe60806040523480156200001157600080fd5b5060043610620002615760003560e01c8063631203b01162000149578063c0af0d3b11620000c7578063ecf351181162000086578063ecf351181462000528578063f2fde38b1462000538578063f36b2425146200054f578063f92d343314620002fc578063fa08b038146200055957600080fd5b8063c0af0d3b14620004bb578063c7b5548114620004e7578063c99cb2b714620004f7578063d380a37c146200050e578063dd0081c7146200051857600080fd5b8063741bef1a1162000114578063741bef1a14620004245780638b0bf23f14620004385780638da5cb5b146200044c578063a622ee7c146200045e578063b0d8e18114620004a457600080fd5b8063631203b014620003d85780636cfb6bf914620003ef578063715018a614620004065780637165f24f146200041057600080fd5b80632b11551a11620001e35780634870dd9a11620001a25780634870dd9a146200038e5780634a1dc092146200039757806350d23c7014620003ae5780635dba4c4a14620003c557806361ec893d14620003cf57600080fd5b80632b11551a14620003355780632f865568146200033f57806331cde747146200035857806335d7484e146200036957806337c34685146200037a57600080fd5b80631e77ceda11620002305780631e77ceda14620002d45780631f68f20a14620002e85780632409266914620002f257806328d28b5b14620002fc5780632a10e8a4146200030657600080fd5b80630266f0441462000266578063071a754114620002975780630c56ae3b14620002af5780631bf4355514620002c3575b600080fd5b6006546200027a906001600160a01b031681565b6040516001600160a01b0390911681526020015b60405180910390f35b620002a0600281565b6040519081526020016200028e565b6008546200027a906001600160a01b031681565b620002a0686194049f30f720000081565b6002546200027a906001600160a01b031681565b620002a060095481565b620002a06200056d565b620002a062000592565b620002a06200031736600462001c9e565b6001600160a01b03166000908152600b602052604090206001015490565b620002a0620005a8565b620003566200035036600462001c9e565b620005bc565b005b620002a068056bc75e2d6310000081565b620002a0680ad78ebc5ac620000081565b6005546200027a906001600160a01b031681565b620002a060c881565b62000356620003a836600462001cbe565b62000aa3565b62000356620003bf36600462001cd8565b620012fe565b620003566200141b565b620002a0603c81565b620002a0620003e936600462001cbe565b62001456565b620003566200040036600462001d16565b62001473565b6200035662001559565b6004546200027a906001600160a01b031681565b6001546200027a906001600160a01b031681565b6003546200027a906001600160a01b031681565b6000546001600160a01b03166200027a565b620004936200046f36600462001c9e565b600b6020526000908152604090208054600182015460029092015490919060ff1683565b6040516200028e9392919062001dbb565b620002a0620004b536600462001c9e565b62001571565b620002a0620004cc36600462001c9e565b6001600160a01b03166000908152600b602052604090205490565b620002a0670ddd4b8c6c7d70d881565b620003566200050836600462001c9e565b620015a7565b620002a0600a5481565b620002a0670de0b6b3a764000081565b620002a0670f43fc2c04ee000081565b620003566200054936600462001c9e565b620015e1565b620002a06200165d565b6007546200027a906001600160a01b031681565b620005826064670de0b6b3a764000062001e22565b6200058f90600562001e39565b81565b620005826103e8670de0b6b3a764000062001e22565b6000620005b76009546200166c565b905090565b60015460408051634c6afee560e11b815290516000926001600160a01b0316916398d5fdca9160048083019260209291908290030181865afa15801562000607573d6000803e3d6000fd5b505050506040513d601f19601f820116820180604052508101906200062d919062001e5b565b90506200065b60405180604001604052806008815260200167507269636520257360c01b81525082620016b1565b6001600160a01b0382166000908152600b602052604081206001810154905482919091509150620006b66040518060400160405280601181526020017063757272656e745265736572766520257360781b81525083620016b1565b620006ec6040518060400160405280601281526020017163757272656e74495553444465627420257360701b81525082620016b1565b6000620006fb838386620016fe565b90506200073360405180604001604052806012815260200171636f6c6c61746572616c526174696f20257360701b81525082620016b1565b670f43fc2c04ee00008110620007895760405162461bcd60e51b815260206004820152601660248201527510d85b9b9bdd081b1a5c5d5a59185d19481d985d5b1d60521b60448201526064015b60405180910390fd5b600554604080516374b908d760e01b815290516000926001600160a01b0316916374b908d79160048083019260209291908290030181865afa158015620007d4573d6000803e3d6000fd5b505050506040513d601f19601f82011682018060405250810190620007fa919062001e5b565b9050828110156200084e5760405162461bcd60e51b815260206004820152601f60248201527f496e73756666696369656e742066756e647320746f206c697175696461746500604482015260640162000780565b60006200085d60c88662001e22565b9050680ad78ebc5ac6200000600062000877838862001e75565b60065460405163686cf79760e11b8152600481018990529192506001600160a01b03169063d0d9ef2e90602401600060405180830381600087803b158015620008bf57600080fd5b505af1158015620008d4573d6000803e3d6000fd5b50506005546040516324800f3b60e21b8152600481018a90526001600160a01b0390911692506392003cec9150602401600060405180830381600087803b1580156200091f57600080fd5b505af115801562000934573d6000803e3d6000fd5b505060065460055460405163b009872960e01b81526001600160a01b039182166004820152602481018690529116925063b00987299150604401600060405180830381600087803b1580156200098957600080fd5b505af11580156200099e573d6000803e3d6000fd5b50505050620009af89600362001738565b6003546007546040516323b872dd60e01b81526001600160a01b039182166004820152336024820152604481018590529116906323b872dd906064016020604051808303816000875af115801562000a0b573d6000803e3d6000fd5b505050506040513d601f19601f8201168201806040525081019062000a31919062001e8f565b5060065460405163b009872960e01b8152336004820152602481018590526001600160a01b039091169063b009872990604401600060405180830381600087803b15801562000a7f57600080fd5b505af115801562000a94573d6000803e3d6000fd5b50505050505050505050505050565b6003546040516370a0823160e01b815233600482015282916001600160a01b0316906370a0823190602401602060405180830381865afa15801562000aec573d6000803e3d6000fd5b505050506040513d601f19601f8201168201806040525081019062000b12919062001e5b565b101562000b9f5760405162461bcd60e51b815260206004820152604e60248201527f5661756c744d616e616765723a2052657175657374656420726564656d70746960448201527f6f6e20616d6f756e74206d757374206265203c3d20757365722773204955534460648201526d20746f6b656e2062616c616e636560901b608482015260a40162000780565b60015460408051634c6afee560e11b815290516000926001600160a01b0316916398d5fdca9160048083019260209291908290030181865afa15801562000bea573d6000803e3d6000fd5b505050506040513d601f19601f8201168201806040525081019062000c10919062001e5b565b905062000c3e60405180604001604052806008815260200167507269636520257360c01b81525082620016b1565b6000600460009054906101000a90046001600160a01b03166001600160a01b0316634d6228316040518163ffffffff1660e01b8152600401602060405180830381865afa15801562000c94573d6000803e3d6000fd5b505050506040513d601f19601f8201168201806040525081019062000cba919062001eb3565b336000908152600b60205260408120549192509062000cf190859062000ceb90680ad78ebc5ac62000009062001e75565b620017f1565b905062000d28604051806040016040528060118152602001704955534420746f2072656465656d20257360781b81525082620016b1565b60008362000d3f670de0b6b3a76400008462001e39565b62000d4b919062001e22565b905062000d85604051806040016040528060148152602001737265736572766520746f2072656465656d20257360601b81525082620016b1565b6001600160a01b0383166000908152600b602052604081205462000dab90849062001e75565b6001600160a01b0385166000908152600b60205260408120600101549192509062000dd890849062001e75565b905062000e086040518060400160405280600a8152602001696e65774465627420257360b01b81525083620016b1565b62000e3c6040518060400160405280601081526020016f6e6577436f6c6c61746572616c20257360801b81525082620016b1565b6006546040805163e012488560e01b815290516000926001600160a01b03169163e01248859160048083019260209291908290030181865afa15801562000e87573d6000803e3d6000fd5b505050506040513d601f19601f8201168201806040525081019062000ead919062001e5b565b905062000ee560405180604001604052806012815260200171746f74616c53797374656d4465627420257360701b81525082620016b1565b680ad78ebc5ac620000083141562000f0a5762000f0486600462001738565b6200105b565b600062000f18838562001809565b600480546040516311c9333960e01b81526001600160a01b038b8116938201939093526024810184905292935016906311c9333990604401600060405180830381600087803b15801562000f6b57600080fd5b505af115801562000f80573d6000803e3d6000fd5b5050505062000fdb6040518060400160405280600b81526020016a4f6c64206465627420257360a81b815250600b60008a6001600160a01b03166001600160a01b0316815260200190815260200160002060000154620016b1565b62001038604051806040016040528060118152602001704f6c6420636f6c6c61746572616c20257360781b815250600b60008a6001600160a01b03166001600160a01b0316815260200190815260200160002060010154620016b1565b506001600160a01b0386166000908152600b602052604090208381556001018290555b6200106884888362001846565b5060006200107685620018be565b9050620010a96040518060400160405280600d81526020016c7265736572766546656520257360981b81525082620016b1565b60065460085460405163b009872960e01b81526001600160a01b0391821660048201526024810184905291169063b009872990604401600060405180830381600087803b158015620010fa57600080fd5b505af11580156200110f573d6000803e3d6000fd5b5050600854604051630da3128360e11b8152600481018590526001600160a01b039091169250631b4625069150602401600060405180830381600087803b1580156200115a57600080fd5b505af11580156200116f573d6000803e3d6000fd5b505050506000818662001183919062001e75565b9050620011c66040518060400160405280601a81526020017f72657365727665546f53656e64546f52656465656d657220257300000000000081525082620016b1565b600354604051632770a7eb60e21b8152336004820152602481018990526001600160a01b0390911690639dc29fac90604401600060405180830381600087803b1580156200121357600080fd5b505af115801562001228573d6000803e3d6000fd5b505060065460405163686cf79760e11b8152600481018b90526001600160a01b03909116925063d0d9ef2e9150602401600060405180830381600087803b1580156200127357600080fd5b505af115801562001288573d6000803e3d6000fd5b505060065460405163b009872960e01b8152336004820152602481018590526001600160a01b03909116925063b00987299150604401600060405180830381600087803b158015620012d957600080fd5b505af1158015620012ee573d6000803e3d6000fd5b5050505050505050505050505050565b6002546001600160a01b031633146200132b5760405162461bcd60e51b8152600401620007809062001ed3565b80600481111562001340576200134062001da5565b6001600160a01b0385166000908152600b60205260409020600201805460ff1916600183600481111562001378576200137862001da5565b02179055506001600160a01b038085166000908152600b602052604090206001810185905583905560045416630fd0ae1085620013b58162001571565b6040516001600160e01b031960e085901b1681526001600160a01b0390921660048301526024820152604401600060405180830381600087803b158015620013fc57600080fd5b505af115801562001411573d6000803e3d6000fd5b5050505050505050565b600062001427620018d5565b9050670de0b6b3a764000081111562001444576200144462001f25565b6009819055620014536200195c565b50565b60006200146d620014666200165d565b8362001980565b92915050565b6200147d620019a3565b60028054336001600160a01b031991821681179092556001805482166001600160a01b038a81169190911790915560038054909216908816179055604051620014c69062001c7a565b6001600160a01b039091168152602001604051809103906000f080158015620014f3573d6000803e3d6000fd5b50600480546001600160a01b03199081166001600160a01b0393841617909155600680548216848416179055600580548216878416179055600780548216868416179055600880549091169184169190911790556200155162001559565b505050505050565b62001563620019a3565b6200156f6000620019ff565b565b6001600160a01b0381166000908152600b602052604081206001810154905460006200159e838362001809565b95945050505050565b6002546001600160a01b03163314620015d45760405162461bcd60e51b8152600401620007809062001ed3565b6200145381600262001738565b620015eb620019a3565b6001600160a01b038116620016525760405162461bcd60e51b815260206004820152602660248201527f4f776e61626c653a206e6577206f776e657220697320746865207a65726f206160448201526564647265737360d01b606482015260840162000780565b6200145381620019ff565b6000620005b760095462001a4f565b60006200146d82620016896103e8670de0b6b3a764000062001e22565b6200169690600562001e39565b620016a2919062001f3b565b670de0b6b3a7640000620017f1565b620016fa8282604051602401620016ca92919062001f56565b60408051601f198184030181529190526020810180516001600160e01b03166309710a9d60e41b17905262001aa7565b5050565b600082156200172c5760008362001716848762001e39565b62001722919062001e22565b9150620017319050565b506000195b9392505050565b6001600160a01b0382166000908152600b60205260409020600201805482919060ff1916600183600481111562001773576200177362001da5565b02179055506001600160a01b038281166000818152600b60205260408082206001810183905591909155600480549151631484968760e11b815290810192909252909116906329092d0e90602401600060405180830381600087803b158015620017dc57600080fd5b505af115801562001551573d6000803e3d6000fd5b600081831062001802578162001731565b5090919050565b600081156200183c57816200182868056bc75e2d631000008562001e39565b62001834919062001e22565b90506200146d565b506000196200146d565b60008062001853620018d5565b905060008362001864868862001e39565b62001870919062001e22565b905060006200188160028362001e22565b6200188d908462001f3b565b9050620018a381670de0b6b3a7640000620017f1565b60098190559050620018b46200195c565b9695505050505050565b60006200146d620018ce620005a8565b8362001ac8565b600080620018e262001b5e565b9050620019186040518060400160405280601081526020016f4d696e7574657350617373656420257360801b81525082620016b1565b60006200192e670ddd4b8c6c7d70d88362001b7d565b9050670de0b6b3a76400008160095462001949919062001e39565b62001955919062001e22565b9250505090565b6000600a54426200196e919062001e75565b9050603c8110620014535742600a5550565b6000670de0b6b3a764000062001997838562001e39565b62001731919062001e22565b6000546001600160a01b031633146200156f5760405162461bcd60e51b815260206004820181905260248201527f4f776e61626c653a2063616c6c6572206973206e6f7420746865206f776e6572604482015260640162000780565b600080546001600160a01b038381166001600160a01b0319831681178455604051919092169283917f8be0079c531659141344cd1fd0a4f28419497f9722a3daafe3b4186f6b6457e09190a35050565b60006200146d8262001a6c6103e8670de0b6b3a764000062001e22565b62001a7990600562001e39565b62001a85919062001f3b565b62001a9a6064670de0b6b3a764000062001e22565b62000ceb90600562001e39565b80516a636f6e736f6c652e6c6f67602083016000808483855afa5050505050565b600080670de0b6b3a764000062001ae0848662001e39565b62001aec919062001e22565b9050828110620017315760405162461bcd60e51b815260206004820152603660248201527f54726f76654d616e616765723a2046656520776f756c642065617420757020616044820152751b1b081c995d1d5c9b99590818dbdb1b185d195c985b60521b606482015260840162000780565b6000603c600a5462001b71919062001e22565b620005b7904262001e75565b6000631f54050082111562001b9457631f54050091505b8162001baa5750670de0b6b3a76400006200146d565b670de0b6b3a764000083835b600181111562001c2c5762001bcd60028262001fb6565b62001bf55762001bde828362001c33565b915062001bed60028262001e22565b905062001bb6565b62001c01828462001c33565b925062001c0f828362001c33565b9150600262001c2060018362001e75565b62001bed919062001e22565b620018b482845b60008062001c42838562001e39565b9050670de0b6b3a764000062001c5a60028262001e22565b62001c66908362001f3b565b62001c72919062001e22565b949350505050565b6110018062001fce83390190565b6001600160a01b03811681146200145357600080fd5b60006020828403121562001cb157600080fd5b8135620017318162001c88565b60006020828403121562001cd157600080fd5b5035919050565b6000806000806080858703121562001cef57600080fd5b843562001cfc8162001c88565b966020860135965060408601359560600135945092505050565b60008060008060008060c0878903121562001d3057600080fd5b863562001d3d8162001c88565b9550602087013562001d4f8162001c88565b9450604087013562001d618162001c88565b9350606087013562001d738162001c88565b9250608087013562001d858162001c88565b915060a087013562001d978162001c88565b809150509295509295509295565b634e487b7160e01b600052602160045260246000fd5b83815260208101839052606081016005831062001de857634e487b7160e01b600052602160045260246000fd5b826040830152949350505050565b634e487b7160e01b600052601260045260246000fd5b634e487b7160e01b600052601160045260246000fd5b60008262001e345762001e3462001df6565b500490565b600081600019048311821515161562001e565762001e5662001e0c565b500290565b60006020828403121562001e6e57600080fd5b5051919050565b60008282101562001e8a5762001e8a62001e0c565b500390565b60006020828403121562001ea257600080fd5b815180151581146200173157600080fd5b60006020828403121562001ec657600080fd5b8151620017318162001c88565b60208082526032908201527f5661756c744d616e616765723a2043616c6c6572206973206e6f742074686520604082015271109bdc9c9bddda5b99c818dbdb9d1c9858dd60721b606082015260800190565b634e487b7160e01b600052600160045260246000fd5b6000821982111562001f515762001f5162001e0c565b500190565b604081526000835180604084015260005b8181101562001f86576020818701810151606086840101520162001f67565b8181111562001f99576000606083860101525b50602083019390935250601f91909101601f191601606001919050565b60008262001fc85762001fc862001df6565b50069056fe608060405234801561001057600080fd5b5060405161100138038061100183398101604081905261002f91610062565b600a600455600080546001600160a01b039092166001600160a01b03199283161790556001805490911633179055610092565b60006020828403121561007457600080fd5b81516001600160a01b038116811461008b57600080fd5b9392505050565b610f60806100a16000396000f3fe608060405234801561001057600080fd5b50600436106101005760003560e01c8063681fe70c11610097578063b72703ac11610066578063b72703ac14610276578063babd3d9a146102a5578063dd0c2015146102b1578063de8fa431146102e457600080fd5b8063681fe70c146101dc57806373d4a13a146101e5578063765e0159146102325780638a4adf241461026357600080fd5b806329092d0e116100d357806329092d0e1461016a5780634d6228311461017d5780635dbe47e81461018e57806363e1d57c146101ca57600080fd5b80630fd0ae101461010557806311c933391461011a5780631e2231431461012d5780631e77ceda14610157575b600080fd5b610118610113366004610e11565b6102ec565b005b610118610128366004610e11565b610342565b6002546001600160a01b03165b6040516001600160a01b0390911681526020015b60405180910390f35b60005461013a906001600160a01b031681565b610118610178366004610e3b565b610461565b6003546001600160a01b031661013a565b6101ba61019c366004610e3b565b6001600160a01b031660009081526006602052604090205460ff1690565b604051901515815260200161014e565b6004545b60405190815260200161014e565b600554156101ba565b600254600354600454600554610207936001600160a01b039081169316919084565b604080516001600160a01b03958616815294909316602085015291830152606082015260800161014e565b61013a610240366004610e3b565b6001600160a01b0390811660009081526006602052604090205461010090041690565b60015461013a906001600160a01b031681565b61013a610284366004610e3b565b6001600160a01b039081166000908152600660205260409020600101541690565b600454600554146101ba565b6102c46102bf366004610e56565b6104dc565b604080516001600160a01b0393841681529290911660208301520161014e565b6005546101ce565b6000546001600160a01b031633148061030f57506001546001600160a01b031633145b6103345760405162461bcd60e51b815260040161032b90610e6f565b60405180910390fd5b61033e82826104f1565b5050565b6000546001600160a01b031633148061036557506001546001600160a01b031633145b6103815760405162461bcd60e51b815260040161032b90610e6f565b6001600160a01b03821660009081526006602052604090205460ff166103fc5760405162461bcd60e51b815260206004820152602a60248201527f536f727465735661756c74733a204c69737420646f6573206e6f7420636f6e74604482015269185a5b881d1a19481a5960b21b606482015260840161032b565b600081116104585760405162461bcd60e51b815260206004820152602360248201527f536f727465735661756c74733a204e494352206d75737420626520706f73697460448201526269766560e81b606482015260840161032b565b61033482610860565b6001546001600160a01b031633146104d05760405162461bcd60e51b815260206004820152602c60248201527f536f727465645661756c74733a2043616c6c6572206973206e6f74207468652060448201526b2b30bab63a26b0b730b3b2b960a11b606482015260840161032b565b6104d981610860565b50565b6000806104e883610a84565b91509150915091565b60045460055414156105455760405162461bcd60e51b815260206004820152601a60248201527f536f727465645661756c74733a204c6973742069732066756c6c000000000000604482015260640161032b565b6001600160a01b03821660009081526006602052604090205460ff16156105c35760405162461bcd60e51b815260206004820152602c60248201527f536f727465645661756c74733a204c69737420616c726561647920636f6e746160448201526b696e7320746865206e6f646560a01b606482015260840161032b565b6001600160a01b0382166106195760405162461bcd60e51b815260206004820152601f60248201527f536f727465645661756c74733a2049642063616e6e6f74206265207a65726f00604482015260640161032b565b600081116106755760405162461bcd60e51b815260206004820152602360248201527f536f727465645661756c74733a204e494352206d75737420626520706f73697460448201526269766560e81b606482015260840161032b565b60008061068183610a84565b6001600160a01b038087166000908152600660205260409020805460ff19166001179055919350915082161580156106c057506001600160a01b038116155b156106f557600280546001600160a01b0386166001600160a01b03199182168117909255600380549091169091179055610849565b6001600160a01b03821661076957600280546001600160a01b03868116600081815260066020526040808220805495851661010002610100600160a81b0319909616959095179094558454909216825291902060010180546001600160a01b03199081168317909155825416179055610849565b6001600160a01b0381166107d957600380546001600160a01b0386811660008181526006602052604080822060010180549585166001600160a01b031996871617905585549093168152919091208054610100600160a81b03191661010083021790558254909116179055610849565b6001600160a01b038085166000818152600660205260408082208054858716610100818102610100600160a81b031993841617845560019384018054988b166001600160a01b0319998a168117909155865284862080549188029190931617909155835291200180549092161790555b600554610857906001610ee2565b60055550505050565b6001600160a01b03811660009081526006602052604090205460ff166108db5760405162461bcd60e51b815260206004820152602a60248201527f536f7274656454726f7665733a204c69737420646f6573206e6f7420636f6e74604482015269185a5b881d1a19481a5960b21b606482015260840161032b565b60055460011015610a1b576002546001600160a01b0382811691161415610948576001600160a01b0380821660009081526006602052604080822054600280546001600160a01b031990811661010090930490951691821790558252902060010180549091169055610a38565b6003546001600160a01b03828116911614156109ac576001600160a01b0380821660009081526006602052604080822060010154600380546001600160a01b03191691909416908117909355918152208054610100600160a81b0319169055610a38565b6001600160a01b038082166000908152600660205260408082208054600180830180548716865284862080546101009485900489168502610100600160a81b03199091161790555492549190910485168452919092200180546001600160a01b03191691909216179055610a38565b600280546001600160a01b03199081169091556003805490911690555b6001600160a01b038116600090815260066020526040902080546001600160a81b0319168155600190810180546001600160a01b0319169055600554610a7e9190610efa565b60055550565b60025460009081906104e89084906001600160a01b0316838060015460405163b0d8e18160e01b81526001600160a01b0385811660048301529091169063b0d8e18190602401602060405180830381865afa158015610ae7573d6000803e3d6000fd5b505050506040513d601f19601f82011682018060405250810190610b0b9190610f11565b8410610b1c57506000905081610ba3565b6001600160a01b038084166000908152600660205260409020548491610100909104165b6001600160a01b03821615801590610b605750610b5e868383610baa565b155b15610b9d57506001600160a01b03908116600090815260066020526040808220546101009081900484168084529190922054909291900416610b40565b90925090505b9250929050565b60006001600160a01b038316158015610bca57506001600160a01b038216155b15610bdb57600554155b9050610dee565b6001600160a01b038316610c7a576002546001600160a01b038381169116148015610bd4575060015460405163b0d8e18160e01b81526001600160a01b0384811660048301529091169063b0d8e181906024015b602060405180830381865afa158015610c4c573d6000803e3d6000fd5b505050506040513d601f19601f82011682018060405250810190610c709190610f11565b8410159050610dee565b6001600160a01b038216610d18576003546001600160a01b038481169116148015610bd4575060015460405163b0d8e18160e01b81526001600160a01b0385811660048301529091169063b0d8e18190602401602060405180830381865afa158015610cea573d6000803e3d6000fd5b505050506040513d601f19601f82011682018060405250810190610d0e9190610f11565b8411159050610dee565b6001600160a01b0383811660009081526006602052604090205461010090048116908316148015610db5575060015460405163b0d8e18160e01b81526001600160a01b0385811660048301528692169063b0d8e18190602401602060405180830381865afa158015610d8e573d6000803e3d6000fd5b505050506040513d601f19601f82011682018060405250810190610db29190610f11565b10155b8015610bd4575060015460405163b0d8e18160e01b81526001600160a01b0384811660048301529091169063b0d8e18190602401610c2f565b9392505050565b80356001600160a01b0381168114610e0c57600080fd5b919050565b60008060408385031215610e2457600080fd5b610e2d83610df5565b946020939093013593505050565b600060208284031215610e4d57600080fd5b610dee82610df5565b600060208284031215610e6857600080fd5b5035919050565b6020808252603e908201527f536f727465645661756c74733a2043616c6c6572206973206e6569746865722060408201527f5072696d6172794d61726b6574206e6f72205661756c744d616e616765720000606082015260800190565b634e487b7160e01b600052601160045260246000fd5b60008219821115610ef557610ef5610ecc565b500190565b600082821015610f0c57610f0c610ecc565b500390565b600060208284031215610f2357600080fd5b505191905056fea264697066735822122058c4df057aa3c1938421a1df58f7c279fc18382a333f2beb4319cd7b371d22d164736f6c634300080a0033a2646970667358221220108723b31575af1a175bf7e88953ec17de8d813f62866b0823685e04efca7f6564736f6c634300080a003360806040523480156200001157600080fd5b5060405162000e8e38038062000e8e833981016040819052620000349162000195565b60408051808201825260098082526824aaa9a22a37b5b2b760b91b6020808401828152855180870190965292855284015281519192916200007891600391620000d2565b5080516200008e906004906020840190620000d2565b5050600580546001600160a01b03199081163317909155600680546001600160a01b039586169083161790556007805493909416921691909117909155506200020a565b828054620000e090620001cd565b90600052602060002090601f0160209004810192826200010457600085556200014f565b82601f106200011f57805160ff19168380011785556200014f565b828001600101855582156200014f579182015b828111156200014f57825182559160200191906001019062000132565b506200015d92915062000161565b5090565b5b808211156200015d576000815560010162000162565b80516001600160a01b03811681146200019057600080fd5b919050565b60008060408385031215620001a957600080fd5b620001b48362000178565b9150620001c46020840162000178565b90509250929050565b600181811c90821680620001e257607f821691505b602082108114156200020457634e487b7160e01b600052602260045260246000fd5b50919050565b610c74806200021a6000396000f3fe608060405234801561001057600080fd5b50600436106101005760003560e01c80633d8b8cb2116100975780639dc29fac116100665780639dc29fac14610224578063a457c2d714610237578063a9059cbb1461024a578063dd62ed3e1461025d57600080fd5b80633d8b8cb2146101cb57806340c10f19146101de57806370a08231146101f357806395d89b411461021c57600080fd5b80631e77ceda116100d35780631e77ceda1461018357806323b872dd14610196578063313ce567146101a957806339509351146101b857600080fd5b806306fdde0314610105578063095ea7b3146101235780630b622ab21461014657806318160ddd14610171575b600080fd5b61010d610270565b60405161011a9190610a92565b60405180910390f35b610136610131366004610b03565b610302565b604051901515815260200161011a565b600754610159906001600160a01b031681565b6040516001600160a01b03909116815260200161011a565b6002545b60405190815260200161011a565b600554610159906001600160a01b031681565b6101366101a4366004610b2d565b61031a565b6040516012815260200161011a565b6101366101c6366004610b03565b61033e565b600654610159906001600160a01b031681565b6101f16101ec366004610b03565b610360565b005b610175610201366004610b69565b6001600160a01b031660009081526020819052604090205490565b61010d6103be565b6101f1610232366004610b03565b6103cd565b610136610245366004610b03565b61044c565b610136610258366004610b03565b6104c7565b61017561026b366004610b8b565b6104d5565b60606003805461027f90610bbe565b80601f01602080910402602001604051908101604052809291908181526020018280546102ab90610bbe565b80156102f85780601f106102cd576101008083540402835291602001916102f8565b820191906000526020600020905b8154815290600101906020018083116102db57829003601f168201915b5050505050905090565b600033610310818585610500565b5060019392505050565b600033610328858285610625565b61033385858561069f565b506001949350505050565b60003361031081858561035183836104d5565b61035b9190610c0f565b610500565b6005546001600160a01b031633146103b05760405162461bcd60e51b815260206004820152600e60248201526d24b73b30b634b21036b4b73a32b960911b60448201526064015b60405180910390fd5b6103ba828261086d565b5050565b60606004805461027f90610bbe565b6005546001600160a01b03163314806103f057506006546001600160a01b031633145b8061040557506007546001600160a01b031633145b6104425760405162461bcd60e51b815260206004820152600e60248201526d24b73b30b634b21036b4b73a32b960911b60448201526064016103a7565b6103ba828261094c565b6000338161045a82866104d5565b9050838110156104ba5760405162461bcd60e51b815260206004820152602560248201527f45524332303a2064656372656173656420616c6c6f77616e63652062656c6f77604482015264207a65726f60d81b60648201526084016103a7565b6103338286868403610500565b60003361031081858561069f565b6001600160a01b03918216600090815260016020908152604080832093909416825291909152205490565b6001600160a01b0383166105625760405162461bcd60e51b8152602060048201526024808201527f45524332303a20617070726f76652066726f6d20746865207a65726f206164646044820152637265737360e01b60648201526084016103a7565b6001600160a01b0382166105c35760405162461bcd60e51b815260206004820152602260248201527f45524332303a20617070726f766520746f20746865207a65726f206164647265604482015261737360f01b60648201526084016103a7565b6001600160a01b0383811660008181526001602090815260408083209487168084529482529182902085905590518481527f8c5be1e5ebec7d5bd14f71427d1e84f3dd0314c0f7b2291e5b200ac8c7c3b92591015b60405180910390a3505050565b600061063184846104d5565b90506000198114610699578181101561068c5760405162461bcd60e51b815260206004820152601d60248201527f45524332303a20696e73756666696369656e7420616c6c6f77616e636500000060448201526064016103a7565b6106998484848403610500565b50505050565b6001600160a01b0383166107035760405162461bcd60e51b815260206004820152602560248201527f45524332303a207472616e736665722066726f6d20746865207a65726f206164604482015264647265737360d81b60648201526084016103a7565b6001600160a01b0382166107655760405162461bcd60e51b815260206004820152602360248201527f45524332303a207472616e7366657220746f20746865207a65726f206164647260448201526265737360e81b60648201526084016103a7565b6001600160a01b038316600090815260208190526040902054818110156107dd5760405162461bcd60e51b815260206004820152602660248201527f45524332303a207472616e7366657220616d6f756e7420657863656564732062604482015265616c616e636560d01b60648201526084016103a7565b6001600160a01b03808516600090815260208190526040808220858503905591851681529081208054849290610814908490610c0f565b92505081905550826001600160a01b0316846001600160a01b03167fddf252ad1be2c89b69c2b068fc378daa952ba7f163c4a11628f55a4df523b3ef8460405161086091815260200190565b60405180910390a3610699565b6001600160a01b0382166108c35760405162461bcd60e51b815260206004820152601f60248201527f45524332303a206d696e7420746f20746865207a65726f20616464726573730060448201526064016103a7565b80600260008282546108d59190610c0f565b90915550506001600160a01b03821660009081526020819052604081208054839290610902908490610c0f565b90915550506040518181526001600160a01b038316906000907fddf252ad1be2c89b69c2b068fc378daa952ba7f163c4a11628f55a4df523b3ef9060200160405180910390a35050565b6001600160a01b0382166109ac5760405162461bcd60e51b815260206004820152602160248201527f45524332303a206275726e2066726f6d20746865207a65726f206164647265736044820152607360f81b60648201526084016103a7565b6001600160a01b03821660009081526020819052604090205481811015610a205760405162461bcd60e51b815260206004820152602260248201527f45524332303a206275726e20616d6f756e7420657863656564732062616c616e604482015261636560f01b60648201526084016103a7565b6001600160a01b0383166000908152602081905260408120838303905560028054849290610a4f908490610c27565b90915550506040518281526000906001600160a01b038516907fddf252ad1be2c89b69c2b068fc378daa952ba7f163c4a11628f55a4df523b3ef90602001610618565b600060208083528351808285015260005b81811015610abf57858101830151858201604001528201610aa3565b81811115610ad1576000604083870101525b50601f01601f1916929092016040019392505050565b80356001600160a01b0381168114610afe57600080fd5b919050565b60008060408385031215610b1657600080fd5b610b1f83610ae7565b946020939093013593505050565b600080600060608486031215610b4257600080fd5b610b4b84610ae7565b9250610b5960208501610ae7565b9150604084013590509250925092565b600060208284031215610b7b57600080fd5b610b8482610ae7565b9392505050565b60008060408385031215610b9e57600080fd5b610ba783610ae7565b9150610bb560208401610ae7565b90509250929050565b600181811c90821680610bd257607f821691505b60208210811415610bf357634e487b7160e01b600052602260045260246000fd5b50919050565b634e487b7160e01b600052601160045260246000fd5b60008219821115610c2257610c22610bf9565b500190565b600082821015610c3957610c39610bf9565b50039056fea2646970667358221220804ef24536a030598188a6cda75c39647b5023b4e76a75e05ae79c162838301764736f6c634300080a0033",
  "linkReferences": {},
  "deployedLinkReferences": {}
}