{
  "_format": "hh-sol-artifact-1",
  "contractName": "StakingPool",
  "sourceName": "contracts/markets/internal/pools/StakingPool.sol",
  "abi": [
    {
      "anonymous": false,
      "inputs": [
        {
          "indexed": true,
          "internalType": "address",
          "name": "previousOwner",
          "type": "address"
        },
        {
          "indexed": true,
          "internalType": "address",
          "name": "newOwner",
          "type": "address"
        }
      ],
      "name": "OwnershipTransferred",
      "type": "event"
    },
    {
      "inputs": [
        {
          "internalType": "uint256",
          "name": "_amount",
          "type": "uint256"
        }
      ],
      "name": "increaseIUSDFees",
      "outputs": [],
      "stateMutability": "nonpayable",
      "type": "function"
    },
    {
      "inputs": [
        {
          "internalType": "uint256",
          "name": "_amount",
          "type": "uint256"
        }
      ],
      "name": "increaseReserveFees",
      "outputs": [],
      "stateMutability": "nonpayable",
      "type": "function"
    },
    {
      "inputs": [],
      "name": "owner",
      "outputs": [
        {
          "internalType": "address",
          "name": "",
          "type": "address"
        }
      ],
      "stateMutability": "view",
      "type": "function"
    },
    {
      "inputs": [],
      "name": "primaryMarket",
      "outputs": [
        {
          "internalType": "contract PrimaryMarket",
          "name": "",
          "type": "address"
        }
      ],
      "stateMutability": "view",
      "type": "function"
    },
    {
      "inputs": [],
      "name": "renounceOwnership",
      "outputs": [],
      "stateMutability": "nonpayable",
      "type": "function"
    },
    {
      "inputs": [
        {
          "internalType": "contract PrimaryMarket",
          "name": "_primaryMarket",
          "type": "address"
        },
        {
          "internalType": "contract ReservePool",
          "name": "_reservePool",
          "type": "address"
        },
        {
          "internalType": "contract VaultManager",
          "name": "_vaultManager",
          "type": "address"
        }
      ],
      "name": "setAddresses",
      "outputs": [],
      "stateMutability": "nonpayable",
      "type": "function"
    },
    {
      "inputs": [],
      "name": "totalIUSDFees",
      "outputs": [
        {
          "internalType": "uint256",
          "name": "",
          "type": "uint256"
        }
      ],
      "stateMutability": "view",
      "type": "function"
    },
    {
      "inputs": [],
      "name": "totalReserveFees",
      "outputs": [
        {
          "internalType": "uint256",
          "name": "",
          "type": "uint256"
        }
      ],
      "stateMutability": "view",
      "type": "function"
    },
    {
      "inputs": [
        {
          "internalType": "address",
          "name": "newOwner",
          "type": "address"
        }
      ],
      "name": "transferOwnership",
      "outputs": [],
      "stateMutability": "nonpayable",
      "type": "function"
    },
    {
      "stateMutability": "payable",
      "type": "receive"
    }
  ],
  "bytecode": "0x608060405234801561001057600080fd5b5061001a3361001f565b61006f565b600080546001600160a01b038381166001600160a01b0319831681178455604051919092169283917f8be0079c531659141344cd1fd0a4f28419497f9722a3daafe3b4186f6b6457e09190a35050565b6105c78061007e6000396000f3fe60806040526004361061008a5760003560e01c8063715018a611610059578063715018a6146101a557806373ad1225146101ba5780638da5cb5b146101de578063af13a8c3146101fc578063f2fde38b1461021257600080fd5b80631b462506146101085780631e77ceda14610128578063363bf9641461016557806369b1e6a11461018557600080fd5b36610103576004546001600160a01b031633146101015760405162461bcd60e51b815260206004820152602a60248201527f5374616b696e67506f6f6c3a2043616c6c6572206973206e6f74207468652052604482015269195cd95c9d99541bdbdb60b21b60648201526084015b60405180910390fd5b005b600080fd5b34801561011457600080fd5b506101016101233660046104ce565b610232565b34801561013457600080fd5b50600354610148906001600160a01b031681565b6040516001600160a01b0390911681526020015b60405180910390f35b34801561017157600080fd5b506101016101803660046104fc565b6102bd565b34801561019157600080fd5b506101016101a03660046104ce565b61030f565b3480156101b157600080fd5b50610101610397565b3480156101c657600080fd5b506101d060025481565b60405190815260200161015c565b3480156101ea57600080fd5b506000546001600160a01b0316610148565b34801561020857600080fd5b506101d060015481565b34801561021e57600080fd5b5061010161022d366004610547565b6103ab565b6005546001600160a01b031633146102a95760405162461bcd60e51b815260206004820152603460248201527f5374616b696e67506f6f6c3a2043616c6c6572206973206e6f74207468652056604482015273185d5b1d13585b9859d95c8818dbdb9d1c9858dd60621b60648201526084016100f8565b806001546102b7919061056b565b60015550565b6102c5610424565b600380546001600160a01b038086166001600160a01b03199283161790925560048054858416908316179055600580549284169290911691909117905561030a610397565b505050565b6003546001600160a01b031633146103835760405162461bcd60e51b815260206004820152603160248201527f5374616b696e67506f6f6c3a2043616c6c6572206973206e6f742074686520426044820152701bdc9c9bddda5b99c818dbdb9d1c9858dd607a1b60648201526084016100f8565b80600254610391919061056b565b60025550565b61039f610424565b6103a9600061047e565b565b6103b3610424565b6001600160a01b0381166104185760405162461bcd60e51b815260206004820152602660248201527f4f776e61626c653a206e6577206f776e657220697320746865207a65726f206160448201526564647265737360d01b60648201526084016100f8565b6104218161047e565b50565b6000546001600160a01b031633146103a95760405162461bcd60e51b815260206004820181905260248201527f4f776e61626c653a2063616c6c6572206973206e6f7420746865206f776e657260448201526064016100f8565b600080546001600160a01b038381166001600160a01b0319831681178455604051919092169283917f8be0079c531659141344cd1fd0a4f28419497f9722a3daafe3b4186f6b6457e09190a35050565b6000602082840312156104e057600080fd5b5035919050565b6001600160a01b038116811461042157600080fd5b60008060006060848603121561051157600080fd5b833561051c816104e7565b9250602084013561052c816104e7565b9150604084013561053c816104e7565b809150509250925092565b60006020828403121561055957600080fd5b8135610564816104e7565b9392505050565b6000821982111561058c57634e487b7160e01b600052601160045260246000fd5b50019056fea2646970667358221220936f7e4dcd050f52db97431e8ed28f6c3ab38b7655513a45c2191be37cee2d1f64736f6c634300080a0033",
  "linkReferences": {},
  "deployedLinkReferences": {}
}