{
  "_format": "hh-sol-artifact-1",
  "contractName": "VaultManager",
  "sourceName": "contracts/markets/internal/cdp/VaultManager.sol",
  "abi": [
    {
      "anonymous": false,
      "inputs": [
        {
          "indexed": true,
          "internalType": "address",
          "name": "previousOwner",
          "type": "address"
        },
        {
          "indexed": true,
          "internalType": "address",
          "name": "newOwner",
          "type": "address"
        }
      ],
      "name": "OwnershipTransferred",
      "type": "event"
    },
    {
      "inputs": [],
      "name": "BETA",
      "outputs": [
        {
          "internalType": "uint256",
          "name": "",
          "type": "uint256"
        }
      ],
      "stateMutability": "view",
      "type": "function"
    },
    {
      "inputs": [],
      "name": "BORROWING_FEE_FLOOR",
      "outputs": [
        {
          "internalType": "uint256",
          "name": "",
          "type": "uint256"
        }
      ],
      "stateMutability": "view",
      "type": "function"
    },
    {
      "inputs": [],
      "name": "IUSD_GAS_COMPENSATION",
      "outputs": [
        {
          "internalType": "uint256",
          "name": "",
          "type": "uint256"
        }
      ],
      "stateMutability": "view",
      "type": "function"
    },
    {
      "inputs": [],
      "name": "MAX_BORROWING_FEE",
      "outputs": [
        {
          "internalType": "uint256",
          "name": "",
          "type": "uint256"
        }
      ],
      "stateMutability": "view",
      "type": "function"
    },
    {
      "inputs": [],
      "name": "MINIMUN_COLLATERAL_RATIO",
      "outputs": [
        {
          "internalType": "uint256",
          "name": "",
          "type": "uint256"
        }
      ],
      "stateMutability": "view",
      "type": "function"
    },
    {
      "inputs": [],
      "name": "MINUTE_DECAY_FACTOR",
      "outputs": [
        {
          "internalType": "uint256",
          "name": "",
          "type": "uint256"
        }
      ],
      "stateMutability": "view",
      "type": "function"
    },
    {
      "inputs": [],
      "name": "MIN_NET_DEBT",
      "outputs": [
        {
          "internalType": "uint256",
          "name": "",
          "type": "uint256"
        }
      ],
      "stateMutability": "view",
      "type": "function"
    },
    {
      "inputs": [],
      "name": "NICR_PRECISION",
      "outputs": [
        {
          "internalType": "uint256",
          "name": "",
          "type": "uint256"
        }
      ],
      "stateMutability": "view",
      "type": "function"
    },
    {
      "inputs": [],
      "name": "ONE_HUNDRED_PERCENT",
      "outputs": [
        {
          "internalType": "uint256",
          "name": "",
          "type": "uint256"
        }
      ],
      "stateMutability": "view",
      "type": "function"
    },
    {
      "inputs": [],
      "name": "PERCENT_DIVISOR",
      "outputs": [
        {
          "internalType": "uint256",
          "name": "",
          "type": "uint256"
        }
      ],
      "stateMutability": "view",
      "type": "function"
    },
    {
      "inputs": [],
      "name": "REDEMPTION_FEE_FLOOR",
      "outputs": [
        {
          "internalType": "uint256",
          "name": "",
          "type": "uint256"
        }
      ],
      "stateMutability": "view",
      "type": "function"
    },
    {
      "inputs": [],
      "name": "SECONDS_IN_ONE_MINUTE",
      "outputs": [
        {
          "internalType": "uint256",
          "name": "",
          "type": "uint256"
        }
      ],
      "stateMutability": "view",
      "type": "function"
    },
    {
      "inputs": [],
      "name": "baseRate",
      "outputs": [
        {
          "internalType": "uint256",
          "name": "",
          "type": "uint256"
        }
      ],
      "stateMutability": "view",
      "type": "function"
    },
    {
      "inputs": [
        {
          "internalType": "address",
          "name": "_borrower",
          "type": "address"
        }
      ],
      "name": "closeVault",
      "outputs": [],
      "stateMutability": "nonpayable",
      "type": "function"
    },
    {
      "inputs": [
        {
          "internalType": "address",
          "name": "_borrower",
          "type": "address"
        },
        {
          "internalType": "uint256",
          "name": "_collateral",
          "type": "uint256"
        },
        {
          "internalType": "uint256",
          "name": "_debt",
          "type": "uint256"
        },
        {
          "internalType": "uint256",
          "name": "_status",
          "type": "uint256"
        }
      ],
      "name": "createVault",
      "outputs": [],
      "stateMutability": "nonpayable",
      "type": "function"
    },
    {
      "inputs": [],
      "name": "decayBaseRateFromBorrowing",
      "outputs": [],
      "stateMutability": "nonpayable",
      "type": "function"
    },
    {
      "inputs": [],
      "name": "gasPool",
      "outputs": [
        {
          "internalType": "contract GasPool",
          "name": "",
          "type": "address"
        }
      ],
      "stateMutability": "view",
      "type": "function"
    },
    {
      "inputs": [
        {
          "internalType": "uint256",
          "name": "_IUSDDebt",
          "type": "uint256"
        }
      ],
      "name": "getBorrowingFee",
      "outputs": [
        {
          "internalType": "uint256",
          "name": "",
          "type": "uint256"
        }
      ],
      "stateMutability": "view",
      "type": "function"
    },
    {
      "inputs": [],
      "name": "getBorrowingRate",
      "outputs": [
        {
          "internalType": "uint256",
          "name": "",
          "type": "uint256"
        }
      ],
      "stateMutability": "view",
      "type": "function"
    },
    {
      "inputs": [
        {
          "internalType": "address",
          "name": "_borrower",
          "type": "address"
        }
      ],
      "name": "getNominalICR",
      "outputs": [
        {
          "internalType": "uint256",
          "name": "",
          "type": "uint256"
        }
      ],
      "stateMutability": "view",
      "type": "function"
    },
    {
      "inputs": [],
      "name": "getRedemptionRate",
      "outputs": [
        {
          "internalType": "uint256",
          "name": "",
          "type": "uint256"
        }
      ],
      "stateMutability": "view",
      "type": "function"
    },
    {
      "inputs": [
        {
          "internalType": "address",
          "name": "_borrower",
          "type": "address"
        }
      ],
      "name": "getVaultCollateral",
      "outputs": [
        {
          "internalType": "uint256",
          "name": "",
          "type": "uint256"
        }
      ],
      "stateMutability": "view",
      "type": "function"
    },
    {
      "inputs": [
        {
          "internalType": "address",
          "name": "_borrower",
          "type": "address"
        }
      ],
      "name": "getVaultDebt",
      "outputs": [
        {
          "internalType": "uint256",
          "name": "",
          "type": "uint256"
        }
      ],
      "stateMutability": "view",
      "type": "function"
    },
    {
      "inputs": [],
      "name": "iusdToken",
      "outputs": [
        {
          "internalType": "contract IdeaUSD",
          "name": "",
          "type": "address"
        }
      ],
      "stateMutability": "view",
      "type": "function"
    },
    {
      "inputs": [],
      "name": "lastFeeOperationTime",
      "outputs": [
        {
          "internalType": "uint256",
          "name": "",
          "type": "uint256"
        }
      ],
      "stateMutability": "view",
      "type": "function"
    },
    {
      "inputs": [
        {
          "internalType": "address",
          "name": "_borrower",
          "type": "address"
        }
      ],
      "name": "liquidate",
      "outputs": [],
      "stateMutability": "nonpayable",
      "type": "function"
    },
    {
      "inputs": [],
      "name": "owner",
      "outputs": [
        {
          "internalType": "address",
          "name": "",
          "type": "address"
        }
      ],
      "stateMutability": "view",
      "type": "function"
    },
    {
      "inputs": [],
      "name": "priceFeed",
      "outputs": [
        {
          "internalType": "contract PriceFeed",
          "name": "",
          "type": "address"
        }
      ],
      "stateMutability": "view",
      "type": "function"
    },
    {
      "inputs": [],
      "name": "primaryMarket",
      "outputs": [
        {
          "internalType": "contract PrimaryMarket",
          "name": "",
          "type": "address"
        }
      ],
      "stateMutability": "view",
      "type": "function"
    },
    {
      "inputs": [
        {
          "internalType": "uint256",
          "name": "_amountToRedeem",
          "type": "uint256"
        }
      ],
      "name": "redemption",
      "outputs": [],
      "stateMutability": "nonpayable",
      "type": "function"
    },
    {
      "inputs": [],
      "name": "renounceOwnership",
      "outputs": [],
      "stateMutability": "nonpayable",
      "type": "function"
    },
    {
      "inputs": [],
      "name": "reservePool",
      "outputs": [
        {
          "internalType": "contract ReservePool",
          "name": "",
          "type": "address"
        }
      ],
      "stateMutability": "view",
      "type": "function"
    },
    {
      "inputs": [
        {
          "internalType": "contract PriceFeed",
          "name": "_priceFeed",
          "type": "address"
        },
        {
          "internalType": "contract IdeaUSD",
          "name": "_IUSDToken",
          "type": "address"
        },
        {
          "internalType": "contract StableCoinPool",
          "name": "_stableCoinPool",
          "type": "address"
        },
        {
          "internalType": "contract GasPool",
          "name": "_gasPool",
          "type": "address"
        },
        {
          "internalType": "contract StakingPool",
          "name": "_stakingPool",
          "type": "address"
        },
        {
          "internalType": "contract ReservePool",
          "name": "_reservePool",
          "type": "address"
        }
      ],
      "name": "setAddresses",
      "outputs": [],
      "stateMutability": "nonpayable",
      "type": "function"
    },
    {
      "inputs": [],
      "name": "sortedVaults",
      "outputs": [
        {
          "internalType": "contract SortedVaults",
          "name": "",
          "type": "address"
        }
      ],
      "stateMutability": "view",
      "type": "function"
    },
    {
      "inputs": [],
      "name": "stableCoinPool",
      "outputs": [
        {
          "internalType": "contract StableCoinPool",
          "name": "",
          "type": "address"
        }
      ],
      "stateMutability": "view",
      "type": "function"
    },
    {
      "inputs": [],
      "name": "stakingPool",
      "outputs": [
        {
          "internalType": "contract StakingPool",
          "name": "",
          "type": "address"
        }
      ],
      "stateMutability": "view",
      "type": "function"
    },
    {
      "inputs": [
        {
          "internalType": "address",
          "name": "newOwner",
          "type": "address"
        }
      ],
      "name": "transferOwnership",
      "outputs": [],
      "stateMutability": "nonpayable",
      "type": "function"
    },
    {
      "inputs": [
        {
          "internalType": "address",
          "name": "",
          "type": "address"
        }
      ],
      "name": "vaults",
      "outputs": [
        {
          "internalType": "uint256",
          "name": "debt",
          "type": "uint256"
        },
        {
          "internalType": "uint256",
          "name": "collateral",
          "type": "uint256"
        },
        {
          "internalType": "enum VaultManager.Status",
          "name": "status",
          "type": "uint8"
        }
      ],
      "stateMutability": "view",
      "type": "function"
    }
  ],
  "bytecode": "0x608060405234801561001057600080fd5b5061001a3361001f565b61006f565b600080546001600160a01b038381166001600160a01b0319831681178455604051919092169283917f8be0079c531659141344cd1fd0a4f28419497f9722a3daafe3b4186f6b6457e09190a35050565b6130048061007e6000396000f3fe60806040523480156200001157600080fd5b5060043610620002615760003560e01c8063631203b01162000149578063c0af0d3b11620000c7578063ecf351181162000086578063ecf351181462000528578063f2fde38b1462000538578063f36b2425146200054f578063f92d343314620002fc578063fa08b038146200055957600080fd5b8063c0af0d3b14620004bb578063c7b5548114620004e7578063c99cb2b714620004f7578063d380a37c146200050e578063dd0081c7146200051857600080fd5b8063741bef1a1162000114578063741bef1a14620004245780638b0bf23f14620004385780638da5cb5b146200044c578063a622ee7c146200045e578063b0d8e18114620004a457600080fd5b8063631203b014620003d85780636cfb6bf914620003ef578063715018a614620004065780637165f24f146200041057600080fd5b80632b11551a11620001e35780634870dd9a11620001a25780634870dd9a146200038e5780634a1dc092146200039757806350d23c7014620003ae5780635dba4c4a14620003c557806361ec893d14620003cf57600080fd5b80632b11551a14620003355780632f865568146200033f57806331cde747146200035857806335d7484e146200036957806337c34685146200037a57600080fd5b80631e77ceda11620002305780631e77ceda14620002d45780631f68f20a14620002e85780632409266914620002f257806328d28b5b14620002fc5780632a10e8a4146200030657600080fd5b80630266f0441462000266578063071a754114620002975780630c56ae3b14620002af5780631bf4355514620002c3575b600080fd5b6006546200027a906001600160a01b031681565b6040516001600160a01b0390911681526020015b60405180910390f35b620002a0600281565b6040519081526020016200028e565b6008546200027a906001600160a01b031681565b620002a0686194049f30f720000081565b6002546200027a906001600160a01b031681565b620002a060095481565b620002a06200056d565b620002a062000592565b620002a06200031736600462001c9e565b6001600160a01b03166000908152600b602052604090206001015490565b620002a0620005a8565b620003566200035036600462001c9e565b620005bc565b005b620002a068056bc75e2d6310000081565b620002a0680ad78ebc5ac620000081565b6005546200027a906001600160a01b031681565b620002a060c881565b62000356620003a836600462001cbe565b62000aa3565b62000356620003bf36600462001cd8565b620012fe565b620003566200141b565b620002a0603c81565b620002a0620003e936600462001cbe565b62001456565b620003566200040036600462001d16565b62001473565b6200035662001559565b6004546200027a906001600160a01b031681565b6001546200027a906001600160a01b031681565b6003546200027a906001600160a01b031681565b6000546001600160a01b03166200027a565b620004936200046f36600462001c9e565b600b6020526000908152604090208054600182015460029092015490919060ff1683565b6040516200028e9392919062001dbb565b620002a0620004b536600462001c9e565b62001571565b620002a0620004cc36600462001c9e565b6001600160a01b03166000908152600b602052604090205490565b620002a0670ddd4b8c6c7d70d881565b620003566200050836600462001c9e565b620015a7565b620002a0600a5481565b620002a0670de0b6b3a764000081565b620002a0670f43fc2c04ee000081565b620003566200054936600462001c9e565b620015e1565b620002a06200165d565b6007546200027a906001600160a01b031681565b620005826064670de0b6b3a764000062001e22565b6200058f90600562001e39565b81565b620005826103e8670de0b6b3a764000062001e22565b6000620005b76009546200166c565b905090565b60015460408051634c6afee560e11b815290516000926001600160a01b0316916398d5fdca9160048083019260209291908290030181865afa15801562000607573d6000803e3d6000fd5b505050506040513d601f19601f820116820180604052508101906200062d919062001e5b565b90506200065b60405180604001604052806008815260200167507269636520257360c01b81525082620016b1565b6001600160a01b0382166000908152600b602052604081206001810154905482919091509150620006b66040518060400160405280601181526020017063757272656e745265736572766520257360781b81525083620016b1565b620006ec6040518060400160405280601281526020017163757272656e74495553444465627420257360701b81525082620016b1565b6000620006fb838386620016fe565b90506200073360405180604001604052806012815260200171636f6c6c61746572616c526174696f20257360701b81525082620016b1565b670f43fc2c04ee00008110620007895760405162461bcd60e51b815260206004820152601660248201527510d85b9b9bdd081b1a5c5d5a59185d19481d985d5b1d60521b60448201526064015b60405180910390fd5b600554604080516374b908d760e01b815290516000926001600160a01b0316916374b908d79160048083019260209291908290030181865afa158015620007d4573d6000803e3d6000fd5b505050506040513d601f19601f82011682018060405250810190620007fa919062001e5b565b9050828110156200084e5760405162461bcd60e51b815260206004820152601f60248201527f496e73756666696369656e742066756e647320746f206c697175696461746500604482015260640162000780565b60006200085d60c88662001e22565b9050680ad78ebc5ac6200000600062000877838862001e75565b60065460405163686cf79760e11b8152600481018990529192506001600160a01b03169063d0d9ef2e90602401600060405180830381600087803b158015620008bf57600080fd5b505af1158015620008d4573d6000803e3d6000fd5b50506005546040516324800f3b60e21b8152600481018a90526001600160a01b0390911692506392003cec9150602401600060405180830381600087803b1580156200091f57600080fd5b505af115801562000934573d6000803e3d6000fd5b505060065460055460405163b009872960e01b81526001600160a01b039182166004820152602481018690529116925063b00987299150604401600060405180830381600087803b1580156200098957600080fd5b505af11580156200099e573d6000803e3d6000fd5b50505050620009af89600362001738565b6003546007546040516323b872dd60e01b81526001600160a01b039182166004820152336024820152604481018590529116906323b872dd906064016020604051808303816000875af115801562000a0b573d6000803e3d6000fd5b505050506040513d601f19601f8201168201806040525081019062000a31919062001e8f565b5060065460405163b009872960e01b8152336004820152602481018590526001600160a01b039091169063b009872990604401600060405180830381600087803b15801562000a7f57600080fd5b505af115801562000a94573d6000803e3d6000fd5b50505050505050505050505050565b6003546040516370a0823160e01b815233600482015282916001600160a01b0316906370a0823190602401602060405180830381865afa15801562000aec573d6000803e3d6000fd5b505050506040513d601f19601f8201168201806040525081019062000b12919062001e5b565b101562000b9f5760405162461bcd60e51b815260206004820152604e60248201527f5661756c744d616e616765723a2052657175657374656420726564656d70746960448201527f6f6e20616d6f756e74206d757374206265203c3d20757365722773204955534460648201526d20746f6b656e2062616c616e636560901b608482015260a40162000780565b60015460408051634c6afee560e11b815290516000926001600160a01b0316916398d5fdca9160048083019260209291908290030181865afa15801562000bea573d6000803e3d6000fd5b505050506040513d601f19601f8201168201806040525081019062000c10919062001e5b565b905062000c3e60405180604001604052806008815260200167507269636520257360c01b81525082620016b1565b6000600460009054906101000a90046001600160a01b03166001600160a01b0316634d6228316040518163ffffffff1660e01b8152600401602060405180830381865afa15801562000c94573d6000803e3d6000fd5b505050506040513d601f19601f8201168201806040525081019062000cba919062001eb3565b336000908152600b60205260408120549192509062000cf190859062000ceb90680ad78ebc5ac62000009062001e75565b620017f1565b905062000d28604051806040016040528060118152602001704955534420746f2072656465656d20257360781b81525082620016b1565b60008362000d3f670de0b6b3a76400008462001e39565b62000d4b919062001e22565b905062000d85604051806040016040528060148152602001737265736572766520746f2072656465656d20257360601b81525082620016b1565b6001600160a01b0383166000908152600b602052604081205462000dab90849062001e75565b6001600160a01b0385166000908152600b60205260408120600101549192509062000dd890849062001e75565b905062000e086040518060400160405280600a8152602001696e65774465627420257360b01b81525083620016b1565b62000e3c6040518060400160405280601081526020016f6e6577436f6c6c61746572616c20257360801b81525082620016b1565b6006546040805163e012488560e01b815290516000926001600160a01b03169163e01248859160048083019260209291908290030181865afa15801562000e87573d6000803e3d6000fd5b505050506040513d601f19601f8201168201806040525081019062000ead919062001e5b565b905062000ee560405180604001604052806012815260200171746f74616c53797374656d4465627420257360701b81525082620016b1565b680ad78ebc5ac620000083141562000f0a5762000f0486600462001738565b6200105b565b600062000f18838562001809565b600480546040516311c9333960e01b81526001600160a01b038b8116938201939093526024810184905292935016906311c9333990604401600060405180830381600087803b15801562000f6b57600080fd5b505af115801562000f80573d6000803e3d6000fd5b5050505062000fdb6040518060400160405280600b81526020016a4f6c64206465627420257360a81b815250600b60008a6001600160a01b03166001600160a01b0316815260200190815260200160002060000154620016b1565b62001038604051806040016040528060118152602001704f6c6420636f6c6c61746572616c20257360781b815250600b60008a6001600160a01b03166001600160a01b0316815260200190815260200160002060010154620016b1565b506001600160a01b0386166000908152600b602052604090208381556001018290555b6200106884888362001846565b5060006200107685620018be565b9050620010a96040518060400160405280600d81526020016c7265736572766546656520257360981b81525082620016b1565b60065460085460405163b009872960e01b81526001600160a01b0391821660048201526024810184905291169063b009872990604401600060405180830381600087803b158015620010fa57600080fd5b505af11580156200110f573d6000803e3d6000fd5b5050600854604051630da3128360e11b8152600481018590526001600160a01b039091169250631b4625069150602401600060405180830381600087803b1580156200115a57600080fd5b505af11580156200116f573d6000803e3d6000fd5b505050506000818662001183919062001e75565b9050620011c66040518060400160405280601a81526020017f72657365727665546f53656e64546f52656465656d657220257300000000000081525082620016b1565b600354604051632770a7eb60e21b8152336004820152602481018990526001600160a01b0390911690639dc29fac90604401600060405180830381600087803b1580156200121357600080fd5b505af115801562001228573d6000803e3d6000fd5b505060065460405163686cf79760e11b8152600481018b90526001600160a01b03909116925063d0d9ef2e9150602401600060405180830381600087803b1580156200127357600080fd5b505af115801562001288573d6000803e3d6000fd5b505060065460405163b009872960e01b8152336004820152602481018590526001600160a01b03909116925063b00987299150604401600060405180830381600087803b158015620012d957600080fd5b505af1158015620012ee573d6000803e3d6000fd5b5050505050505050505050505050565b6002546001600160a01b031633146200132b5760405162461bcd60e51b8152600401620007809062001ed3565b80600481111562001340576200134062001da5565b6001600160a01b0385166000908152600b60205260409020600201805460ff1916600183600481111562001378576200137862001da5565b02179055506001600160a01b038085166000908152600b602052604090206001810185905583905560045416630fd0ae1085620013b58162001571565b6040516001600160e01b031960e085901b1681526001600160a01b0390921660048301526024820152604401600060405180830381600087803b158015620013fc57600080fd5b505af115801562001411573d6000803e3d6000fd5b5050505050505050565b600062001427620018d5565b9050670de0b6b3a764000081111562001444576200144462001f25565b6009819055620014536200195c565b50565b60006200146d620014666200165d565b8362001980565b92915050565b6200147d620019a3565b60028054336001600160a01b031991821681179092556001805482166001600160a01b038a81169190911790915560038054909216908816179055604051620014c69062001c7a565b6001600160a01b039091168152602001604051809103906000f080158015620014f3573d6000803e3d6000fd5b50600480546001600160a01b03199081166001600160a01b0393841617909155600680548216848416179055600580548216878416179055600780548216868416179055600880549091169184169190911790556200155162001559565b505050505050565b62001563620019a3565b6200156f6000620019ff565b565b6001600160a01b0381166000908152600b602052604081206001810154905460006200159e838362001809565b95945050505050565b6002546001600160a01b03163314620015d45760405162461bcd60e51b8152600401620007809062001ed3565b6200145381600262001738565b620015eb620019a3565b6001600160a01b038116620016525760405162461bcd60e51b815260206004820152602660248201527f4f776e61626c653a206e6577206f776e657220697320746865207a65726f206160448201526564647265737360d01b606482015260840162000780565b6200145381620019ff565b6000620005b760095462001a4f565b60006200146d82620016896103e8670de0b6b3a764000062001e22565b6200169690600562001e39565b620016a2919062001f3b565b670de0b6b3a7640000620017f1565b620016fa8282604051602401620016ca92919062001f56565b60408051601f198184030181529190526020810180516001600160e01b03166309710a9d60e41b17905262001aa7565b5050565b600082156200172c5760008362001716848762001e39565b62001722919062001e22565b9150620017319050565b506000195b9392505050565b6001600160a01b0382166000908152600b60205260409020600201805482919060ff1916600183600481111562001773576200177362001da5565b02179055506001600160a01b038281166000818152600b60205260408082206001810183905591909155600480549151631484968760e11b815290810192909252909116906329092d0e90602401600060405180830381600087803b158015620017dc57600080fd5b505af115801562001551573d6000803e3d6000fd5b600081831062001802578162001731565b5090919050565b600081156200183c57816200182868056bc75e2d631000008562001e39565b62001834919062001e22565b90506200146d565b506000196200146d565b60008062001853620018d5565b905060008362001864868862001e39565b62001870919062001e22565b905060006200188160028362001e22565b6200188d908462001f3b565b9050620018a381670de0b6b3a7640000620017f1565b60098190559050620018b46200195c565b9695505050505050565b60006200146d620018ce620005a8565b8362001ac8565b600080620018e262001b5e565b9050620019186040518060400160405280601081526020016f4d696e7574657350617373656420257360801b81525082620016b1565b60006200192e670ddd4b8c6c7d70d88362001b7d565b9050670de0b6b3a76400008160095462001949919062001e39565b62001955919062001e22565b9250505090565b6000600a54426200196e919062001e75565b9050603c8110620014535742600a5550565b6000670de0b6b3a764000062001997838562001e39565b62001731919062001e22565b6000546001600160a01b031633146200156f5760405162461bcd60e51b815260206004820181905260248201527f4f776e61626c653a2063616c6c6572206973206e6f7420746865206f776e6572604482015260640162000780565b600080546001600160a01b038381166001600160a01b0319831681178455604051919092169283917f8be0079c531659141344cd1fd0a4f28419497f9722a3daafe3b4186f6b6457e09190a35050565b60006200146d8262001a6c6103e8670de0b6b3a764000062001e22565b62001a7990600562001e39565b62001a85919062001f3b565b62001a9a6064670de0b6b3a764000062001e22565b62000ceb90600562001e39565b80516a636f6e736f6c652e6c6f67602083016000808483855afa5050505050565b600080670de0b6b3a764000062001ae0848662001e39565b62001aec919062001e22565b9050828110620017315760405162461bcd60e51b815260206004820152603660248201527f54726f76654d616e616765723a2046656520776f756c642065617420757020616044820152751b1b081c995d1d5c9b99590818dbdb1b185d195c985b60521b606482015260840162000780565b6000603c600a5462001b71919062001e22565b620005b7904262001e75565b6000631f54050082111562001b9457631f54050091505b8162001baa5750670de0b6b3a76400006200146d565b670de0b6b3a764000083835b600181111562001c2c5762001bcd60028262001fb6565b62001bf55762001bde828362001c33565b915062001bed60028262001e22565b905062001bb6565b62001c01828462001c33565b925062001c0f828362001c33565b9150600262001c2060018362001e75565b62001bed919062001e22565b620018b482845b60008062001c42838562001e39565b9050670de0b6b3a764000062001c5a60028262001e22565b62001c66908362001f3b565b62001c72919062001e22565b949350505050565b6110018062001fce83390190565b6001600160a01b03811681146200145357600080fd5b60006020828403121562001cb157600080fd5b8135620017318162001c88565b60006020828403121562001cd157600080fd5b5035919050565b6000806000806080858703121562001cef57600080fd5b843562001cfc8162001c88565b966020860135965060408601359560600135945092505050565b60008060008060008060c0878903121562001d3057600080fd5b863562001d3d8162001c88565b9550602087013562001d4f8162001c88565b9450604087013562001d618162001c88565b9350606087013562001d738162001c88565b9250608087013562001d858162001c88565b915060a087013562001d978162001c88565b809150509295509295509295565b634e487b7160e01b600052602160045260246000fd5b83815260208101839052606081016005831062001de857634e487b7160e01b600052602160045260246000fd5b826040830152949350505050565b634e487b7160e01b600052601260045260246000fd5b634e487b7160e01b600052601160045260246000fd5b60008262001e345762001e3462001df6565b500490565b600081600019048311821515161562001e565762001e5662001e0c565b500290565b60006020828403121562001e6e57600080fd5b5051919050565b60008282101562001e8a5762001e8a62001e0c565b500390565b60006020828403121562001ea257600080fd5b815180151581146200173157600080fd5b60006020828403121562001ec657600080fd5b8151620017318162001c88565b60208082526032908201527f5661756c744d616e616765723a2043616c6c6572206973206e6f742074686520604082015271109bdc9c9bddda5b99c818dbdb9d1c9858dd60721b606082015260800190565b634e487b7160e01b600052600160045260246000fd5b6000821982111562001f515762001f5162001e0c565b500190565b604081526000835180604084015260005b8181101562001f86576020818701810151606086840101520162001f67565b8181111562001f99576000606083860101525b50602083019390935250601f91909101601f191601606001919050565b60008262001fc85762001fc862001df6565b50069056fe608060405234801561001057600080fd5b5060405161100138038061100183398101604081905261002f91610062565b600a600455600080546001600160a01b039092166001600160a01b03199283161790556001805490911633179055610092565b60006020828403121561007457600080fd5b81516001600160a01b038116811461008b57600080fd5b9392505050565b610f60806100a16000396000f3fe608060405234801561001057600080fd5b50600436106101005760003560e01c8063681fe70c11610097578063b72703ac11610066578063b72703ac14610276578063babd3d9a146102a5578063dd0c2015146102b1578063de8fa431146102e457600080fd5b8063681fe70c146101dc57806373d4a13a146101e5578063765e0159146102325780638a4adf241461026357600080fd5b806329092d0e116100d357806329092d0e1461016a5780634d6228311461017d5780635dbe47e81461018e57806363e1d57c146101ca57600080fd5b80630fd0ae101461010557806311c933391461011a5780631e2231431461012d5780631e77ceda14610157575b600080fd5b610118610113366004610e11565b6102ec565b005b610118610128366004610e11565b610342565b6002546001600160a01b03165b6040516001600160a01b0390911681526020015b60405180910390f35b60005461013a906001600160a01b031681565b610118610178366004610e3b565b610461565b6003546001600160a01b031661013a565b6101ba61019c366004610e3b565b6001600160a01b031660009081526006602052604090205460ff1690565b604051901515815260200161014e565b6004545b60405190815260200161014e565b600554156101ba565b600254600354600454600554610207936001600160a01b039081169316919084565b604080516001600160a01b03958616815294909316602085015291830152606082015260800161014e565b61013a610240366004610e3b565b6001600160a01b0390811660009081526006602052604090205461010090041690565b60015461013a906001600160a01b031681565b61013a610284366004610e3b565b6001600160a01b039081166000908152600660205260409020600101541690565b600454600554146101ba565b6102c46102bf366004610e56565b6104dc565b604080516001600160a01b0393841681529290911660208301520161014e565b6005546101ce565b6000546001600160a01b031633148061030f57506001546001600160a01b031633145b6103345760405162461bcd60e51b815260040161032b90610e6f565b60405180910390fd5b61033e82826104f1565b5050565b6000546001600160a01b031633148061036557506001546001600160a01b031633145b6103815760405162461bcd60e51b815260040161032b90610e6f565b6001600160a01b03821660009081526006602052604090205460ff166103fc5760405162461bcd60e51b815260206004820152602a60248201527f536f727465735661756c74733a204c69737420646f6573206e6f7420636f6e74604482015269185a5b881d1a19481a5960b21b606482015260840161032b565b600081116104585760405162461bcd60e51b815260206004820152602360248201527f536f727465735661756c74733a204e494352206d75737420626520706f73697460448201526269766560e81b606482015260840161032b565b61033482610860565b6001546001600160a01b031633146104d05760405162461bcd60e51b815260206004820152602c60248201527f536f727465645661756c74733a2043616c6c6572206973206e6f74207468652060448201526b2b30bab63a26b0b730b3b2b960a11b606482015260840161032b565b6104d981610860565b50565b6000806104e883610a84565b91509150915091565b60045460055414156105455760405162461bcd60e51b815260206004820152601a60248201527f536f727465645661756c74733a204c6973742069732066756c6c000000000000604482015260640161032b565b6001600160a01b03821660009081526006602052604090205460ff16156105c35760405162461bcd60e51b815260206004820152602c60248201527f536f727465645661756c74733a204c69737420616c726561647920636f6e746160448201526b696e7320746865206e6f646560a01b606482015260840161032b565b6001600160a01b0382166106195760405162461bcd60e51b815260206004820152601f60248201527f536f727465645661756c74733a2049642063616e6e6f74206265207a65726f00604482015260640161032b565b600081116106755760405162461bcd60e51b815260206004820152602360248201527f536f727465645661756c74733a204e494352206d75737420626520706f73697460448201526269766560e81b606482015260840161032b565b60008061068183610a84565b6001600160a01b038087166000908152600660205260409020805460ff19166001179055919350915082161580156106c057506001600160a01b038116155b156106f557600280546001600160a01b0386166001600160a01b03199182168117909255600380549091169091179055610849565b6001600160a01b03821661076957600280546001600160a01b03868116600081815260066020526040808220805495851661010002610100600160a81b0319909616959095179094558454909216825291902060010180546001600160a01b03199081168317909155825416179055610849565b6001600160a01b0381166107d957600380546001600160a01b0386811660008181526006602052604080822060010180549585166001600160a01b031996871617905585549093168152919091208054610100600160a81b03191661010083021790558254909116179055610849565b6001600160a01b038085166000818152600660205260408082208054858716610100818102610100600160a81b031993841617845560019384018054988b166001600160a01b0319998a168117909155865284862080549188029190931617909155835291200180549092161790555b600554610857906001610ee2565b60055550505050565b6001600160a01b03811660009081526006602052604090205460ff166108db5760405162461bcd60e51b815260206004820152602a60248201527f536f7274656454726f7665733a204c69737420646f6573206e6f7420636f6e74604482015269185a5b881d1a19481a5960b21b606482015260840161032b565b60055460011015610a1b576002546001600160a01b0382811691161415610948576001600160a01b0380821660009081526006602052604080822054600280546001600160a01b031990811661010090930490951691821790558252902060010180549091169055610a38565b6003546001600160a01b03828116911614156109ac576001600160a01b0380821660009081526006602052604080822060010154600380546001600160a01b03191691909416908117909355918152208054610100600160a81b0319169055610a38565b6001600160a01b038082166000908152600660205260408082208054600180830180548716865284862080546101009485900489168502610100600160a81b03199091161790555492549190910485168452919092200180546001600160a01b03191691909216179055610a38565b600280546001600160a01b03199081169091556003805490911690555b6001600160a01b038116600090815260066020526040902080546001600160a81b0319168155600190810180546001600160a01b0319169055600554610a7e9190610efa565b60055550565b60025460009081906104e89084906001600160a01b0316838060015460405163b0d8e18160e01b81526001600160a01b0385811660048301529091169063b0d8e18190602401602060405180830381865afa158015610ae7573d6000803e3d6000fd5b505050506040513d601f19601f82011682018060405250810190610b0b9190610f11565b8410610b1c57506000905081610ba3565b6001600160a01b038084166000908152600660205260409020548491610100909104165b6001600160a01b03821615801590610b605750610b5e868383610baa565b155b15610b9d57506001600160a01b03908116600090815260066020526040808220546101009081900484168084529190922054909291900416610b40565b90925090505b9250929050565b60006001600160a01b038316158015610bca57506001600160a01b038216155b15610bdb57600554155b9050610dee565b6001600160a01b038316610c7a576002546001600160a01b038381169116148015610bd4575060015460405163b0d8e18160e01b81526001600160a01b0384811660048301529091169063b0d8e181906024015b602060405180830381865afa158015610c4c573d6000803e3d6000fd5b505050506040513d601f19601f82011682018060405250810190610c709190610f11565b8410159050610dee565b6001600160a01b038216610d18576003546001600160a01b038481169116148015610bd4575060015460405163b0d8e18160e01b81526001600160a01b0385811660048301529091169063b0d8e18190602401602060405180830381865afa158015610cea573d6000803e3d6000fd5b505050506040513d601f19601f82011682018060405250810190610d0e9190610f11565b8411159050610dee565b6001600160a01b0383811660009081526006602052604090205461010090048116908316148015610db5575060015460405163b0d8e18160e01b81526001600160a01b0385811660048301528692169063b0d8e18190602401602060405180830381865afa158015610d8e573d6000803e3d6000fd5b505050506040513d601f19601f82011682018060405250810190610db29190610f11565b10155b8015610bd4575060015460405163b0d8e18160e01b81526001600160a01b0384811660048301529091169063b0d8e18190602401610c2f565b9392505050565b80356001600160a01b0381168114610e0c57600080fd5b919050565b60008060408385031215610e2457600080fd5b610e2d83610df5565b946020939093013593505050565b600060208284031215610e4d57600080fd5b610dee82610df5565b600060208284031215610e6857600080fd5b5035919050565b6020808252603e908201527f536f727465645661756c74733a2043616c6c6572206973206e6569746865722060408201527f5072696d6172794d61726b6574206e6f72205661756c744d616e616765720000606082015260800190565b634e487b7160e01b600052601160045260246000fd5b60008219821115610ef557610ef5610ecc565b500190565b600082821015610f0c57610f0c610ecc565b500390565b600060208284031215610f2357600080fd5b505191905056fea264697066735822122060ce17cc3ea4931a8fadd3e714396987e74b353a672c009006f0f256f027767d64736f6c634300080a0033a2646970667358221220dc4d0fe6525c0d6b03908b453b90c2de0b7982edb7b6b9f43724184c3ab4e13364736f6c634300080a0033",
  "linkReferences": {},
  "deployedLinkReferences": {}
}