{
  "_format": "hh-sol-artifact-1",
  "contractName": "IdeaUSD",
  "sourceName": "contracts/tokens/stablecoins/IdeaUSD.sol",
  "abi": [
    {
      "inputs": [
        {
          "internalType": "address",
          "name": "_vaultManagerAddress",
          "type": "address"
        },
        {
          "internalType": "address",
          "name": "_stabilityPoolAddress",
          "type": "address"
        }
      ],
      "stateMutability": "nonpayable",
      "type": "constructor"
    },
    {
      "anonymous": false,
      "inputs": [
        {
          "indexed": true,
          "internalType": "address",
          "name": "owner",
          "type": "address"
        },
        {
          "indexed": true,
          "internalType": "address",
          "name": "spender",
          "type": "address"
        },
        {
          "indexed": false,
          "internalType": "uint256",
          "name": "value",
          "type": "uint256"
        }
      ],
      "name": "Approval",
      "type": "event"
    },
    {
      "anonymous": false,
      "inputs": [
        {
          "indexed": true,
          "internalType": "address",
          "name": "from",
          "type": "address"
        },
        {
          "indexed": true,
          "internalType": "address",
          "name": "to",
          "type": "address"
        },
        {
          "indexed": false,
          "internalType": "uint256",
          "name": "value",
          "type": "uint256"
        }
      ],
      "name": "Transfer",
      "type": "event"
    },
    {
      "inputs": [
        {
          "internalType": "address",
          "name": "owner",
          "type": "address"
        },
        {
          "internalType": "address",
          "name": "spender",
          "type": "address"
        }
      ],
      "name": "allowance",
      "outputs": [
        {
          "internalType": "uint256",
          "name": "",
          "type": "uint256"
        }
      ],
      "stateMutability": "view",
      "type": "function"
    },
    {
      "inputs": [
        {
          "internalType": "address",
          "name": "spender",
          "type": "address"
        },
        {
          "internalType": "uint256",
          "name": "amount",
          "type": "uint256"
        }
      ],
      "name": "approve",
      "outputs": [
        {
          "internalType": "bool",
          "name": "",
          "type": "bool"
        }
      ],
      "stateMutability": "nonpayable",
      "type": "function"
    },
    {
      "inputs": [
        {
          "internalType": "address",
          "name": "account",
          "type": "address"
        }
      ],
      "name": "balanceOf",
      "outputs": [
        {
          "internalType": "uint256",
          "name": "",
          "type": "uint256"
        }
      ],
      "stateMutability": "view",
      "type": "function"
    },
    {
      "inputs": [
        {
          "internalType": "address",
          "name": "_account",
          "type": "address"
        },
        {
          "internalType": "uint256",
          "name": "_amount",
          "type": "uint256"
        }
      ],
      "name": "burn",
      "outputs": [],
      "stateMutability": "nonpayable",
      "type": "function"
    },
    {
      "inputs": [],
      "name": "decimals",
      "outputs": [
        {
          "internalType": "uint8",
          "name": "",
          "type": "uint8"
        }
      ],
      "stateMutability": "view",
      "type": "function"
    },
    {
      "inputs": [
        {
          "internalType": "address",
          "name": "spender",
          "type": "address"
        },
        {
          "internalType": "uint256",
          "name": "subtractedValue",
          "type": "uint256"
        }
      ],
      "name": "decreaseAllowance",
      "outputs": [
        {
          "internalType": "bool",
          "name": "",
          "type": "bool"
        }
      ],
      "stateMutability": "nonpayable",
      "type": "function"
    },
    {
      "inputs": [
        {
          "internalType": "address",
          "name": "spender",
          "type": "address"
        },
        {
          "internalType": "uint256",
          "name": "addedValue",
          "type": "uint256"
        }
      ],
      "name": "increaseAllowance",
      "outputs": [
        {
          "internalType": "bool",
          "name": "",
          "type": "bool"
        }
      ],
      "stateMutability": "nonpayable",
      "type": "function"
    },
    {
      "inputs": [
        {
          "internalType": "address",
          "name": "_account",
          "type": "address"
        },
        {
          "internalType": "uint256",
          "name": "_amount",
          "type": "uint256"
        }
      ],
      "name": "mint",
      "outputs": [],
      "stateMutability": "nonpayable",
      "type": "function"
    },
    {
      "inputs": [],
      "name": "name",
      "outputs": [
        {
          "internalType": "string",
          "name": "",
          "type": "string"
        }
      ],
      "stateMutability": "view",
      "type": "function"
    },
    {
      "inputs": [],
      "name": "primaryMarket",
      "outputs": [
        {
          "internalType": "address",
          "name": "",
          "type": "address"
        }
      ],
      "stateMutability": "view",
      "type": "function"
    },
    {
      "inputs": [],
      "name": "stabilityPoolAddress",
      "outputs": [
        {
          "internalType": "address",
          "name": "",
          "type": "address"
        }
      ],
      "stateMutability": "view",
      "type": "function"
    },
    {
      "inputs": [],
      "name": "symbol",
      "outputs": [
        {
          "internalType": "string",
          "name": "",
          "type": "string"
        }
      ],
      "stateMutability": "view",
      "type": "function"
    },
    {
      "inputs": [],
      "name": "totalSupply",
      "outputs": [
        {
          "internalType": "uint256",
          "name": "",
          "type": "uint256"
        }
      ],
      "stateMutability": "view",
      "type": "function"
    },
    {
      "inputs": [
        {
          "internalType": "address",
          "name": "to",
          "type": "address"
        },
        {
          "internalType": "uint256",
          "name": "amount",
          "type": "uint256"
        }
      ],
      "name": "transfer",
      "outputs": [
        {
          "internalType": "bool",
          "name": "",
          "type": "bool"
        }
      ],
      "stateMutability": "nonpayable",
      "type": "function"
    },
    {
      "inputs": [
        {
          "internalType": "address",
          "name": "from",
          "type": "address"
        },
        {
          "internalType": "address",
          "name": "to",
          "type": "address"
        },
        {
          "internalType": "uint256",
          "name": "amount",
          "type": "uint256"
        }
      ],
      "name": "transferFrom",
      "outputs": [
        {
          "internalType": "bool",
          "name": "",
          "type": "bool"
        }
      ],
      "stateMutability": "nonpayable",
      "type": "function"
    },
    {
      "inputs": [],
      "name": "vaultManagerAddress",
      "outputs": [
        {
          "internalType": "address",
          "name": "",
          "type": "address"
        }
      ],
      "stateMutability": "view",
      "type": "function"
    }
  ],
  "bytecode": "0x60806040523480156200001157600080fd5b5060405162000e8e38038062000e8e833981016040819052620000349162000195565b60408051808201825260098082526824aaa9a22a37b5b2b760b91b6020808401828152855180870190965292855284015281519192916200007891600391620000d2565b5080516200008e906004906020840190620000d2565b5050600580546001600160a01b03199081163317909155600680546001600160a01b039586169083161790556007805493909416921691909117909155506200020a565b828054620000e090620001cd565b90600052602060002090601f0160209004810192826200010457600085556200014f565b82601f106200011f57805160ff19168380011785556200014f565b828001600101855582156200014f579182015b828111156200014f57825182559160200191906001019062000132565b506200015d92915062000161565b5090565b5b808211156200015d576000815560010162000162565b80516001600160a01b03811681146200019057600080fd5b919050565b60008060408385031215620001a957600080fd5b620001b48362000178565b9150620001c46020840162000178565b90509250929050565b600181811c90821680620001e257607f821691505b602082108114156200020457634e487b7160e01b600052602260045260246000fd5b50919050565b610c74806200021a6000396000f3fe608060405234801561001057600080fd5b50600436106101005760003560e01c80633d8b8cb2116100975780639dc29fac116100665780639dc29fac14610224578063a457c2d714610237578063a9059cbb1461024a578063dd62ed3e1461025d57600080fd5b80633d8b8cb2146101cb57806340c10f19146101de57806370a08231146101f357806395d89b411461021c57600080fd5b80631e77ceda116100d35780631e77ceda1461018357806323b872dd14610196578063313ce567146101a957806339509351146101b857600080fd5b806306fdde0314610105578063095ea7b3146101235780630b622ab21461014657806318160ddd14610171575b600080fd5b61010d610270565b60405161011a9190610a92565b60405180910390f35b610136610131366004610b03565b610302565b604051901515815260200161011a565b600754610159906001600160a01b031681565b6040516001600160a01b03909116815260200161011a565b6002545b60405190815260200161011a565b600554610159906001600160a01b031681565b6101366101a4366004610b2d565b61031a565b6040516012815260200161011a565b6101366101c6366004610b03565b61033e565b600654610159906001600160a01b031681565b6101f16101ec366004610b03565b610360565b005b610175610201366004610b69565b6001600160a01b031660009081526020819052604090205490565b61010d6103be565b6101f1610232366004610b03565b6103cd565b610136610245366004610b03565b61044c565b610136610258366004610b03565b6104c7565b61017561026b366004610b8b565b6104d5565b60606003805461027f90610bbe565b80601f01602080910402602001604051908101604052809291908181526020018280546102ab90610bbe565b80156102f85780601f106102cd576101008083540402835291602001916102f8565b820191906000526020600020905b8154815290600101906020018083116102db57829003601f168201915b5050505050905090565b600033610310818585610500565b5060019392505050565b600033610328858285610625565b61033385858561069f565b506001949350505050565b60003361031081858561035183836104d5565b61035b9190610c0f565b610500565b6005546001600160a01b031633146103b05760405162461bcd60e51b815260206004820152600e60248201526d24b73b30b634b21036b4b73a32b960911b60448201526064015b60405180910390fd5b6103ba828261086d565b5050565b60606004805461027f90610bbe565b6005546001600160a01b03163314806103f057506006546001600160a01b031633145b8061040557506007546001600160a01b031633145b6104425760405162461bcd60e51b815260206004820152600e60248201526d24b73b30b634b21036b4b73a32b960911b60448201526064016103a7565b6103ba828261094c565b6000338161045a82866104d5565b9050838110156104ba5760405162461bcd60e51b815260206004820152602560248201527f45524332303a2064656372656173656420616c6c6f77616e63652062656c6f77604482015264207a65726f60d81b60648201526084016103a7565b6103338286868403610500565b60003361031081858561069f565b6001600160a01b03918216600090815260016020908152604080832093909416825291909152205490565b6001600160a01b0383166105625760405162461bcd60e51b8152602060048201526024808201527f45524332303a20617070726f76652066726f6d20746865207a65726f206164646044820152637265737360e01b60648201526084016103a7565b6001600160a01b0382166105c35760405162461bcd60e51b815260206004820152602260248201527f45524332303a20617070726f766520746f20746865207a65726f206164647265604482015261737360f01b60648201526084016103a7565b6001600160a01b0383811660008181526001602090815260408083209487168084529482529182902085905590518481527f8c5be1e5ebec7d5bd14f71427d1e84f3dd0314c0f7b2291e5b200ac8c7c3b92591015b60405180910390a3505050565b600061063184846104d5565b90506000198114610699578181101561068c5760405162461bcd60e51b815260206004820152601d60248201527f45524332303a20696e73756666696369656e7420616c6c6f77616e636500000060448201526064016103a7565b6106998484848403610500565b50505050565b6001600160a01b0383166107035760405162461bcd60e51b815260206004820152602560248201527f45524332303a207472616e736665722066726f6d20746865207a65726f206164604482015264647265737360d81b60648201526084016103a7565b6001600160a01b0382166107655760405162461bcd60e51b815260206004820152602360248201527f45524332303a207472616e7366657220746f20746865207a65726f206164647260448201526265737360e81b60648201526084016103a7565b6001600160a01b038316600090815260208190526040902054818110156107dd5760405162461bcd60e51b815260206004820152602660248201527f45524332303a207472616e7366657220616d6f756e7420657863656564732062604482015265616c616e636560d01b60648201526084016103a7565b6001600160a01b03808516600090815260208190526040808220858503905591851681529081208054849290610814908490610c0f565b92505081905550826001600160a01b0316846001600160a01b03167fddf252ad1be2c89b69c2b068fc378daa952ba7f163c4a11628f55a4df523b3ef8460405161086091815260200190565b60405180910390a3610699565b6001600160a01b0382166108c35760405162461bcd60e51b815260206004820152601f60248201527f45524332303a206d696e7420746f20746865207a65726f20616464726573730060448201526064016103a7565b80600260008282546108d59190610c0f565b90915550506001600160a01b03821660009081526020819052604081208054839290610902908490610c0f565b90915550506040518181526001600160a01b038316906000907fddf252ad1be2c89b69c2b068fc378daa952ba7f163c4a11628f55a4df523b3ef9060200160405180910390a35050565b6001600160a01b0382166109ac5760405162461bcd60e51b815260206004820152602160248201527f45524332303a206275726e2066726f6d20746865207a65726f206164647265736044820152607360f81b60648201526084016103a7565b6001600160a01b03821660009081526020819052604090205481811015610a205760405162461bcd60e51b815260206004820152602260248201527f45524332303a206275726e20616d6f756e7420657863656564732062616c616e604482015261636560f01b60648201526084016103a7565b6001600160a01b0383166000908152602081905260408120838303905560028054849290610a4f908490610c27565b90915550506040518281526000906001600160a01b038516907fddf252ad1be2c89b69c2b068fc378daa952ba7f163c4a11628f55a4df523b3ef90602001610618565b600060208083528351808285015260005b81811015610abf57858101830151858201604001528201610aa3565b81811115610ad1576000604083870101525b50601f01601f1916929092016040019392505050565b80356001600160a01b0381168114610afe57600080fd5b919050565b60008060408385031215610b1657600080fd5b610b1f83610ae7565b946020939093013593505050565b600080600060608486031215610b4257600080fd5b610b4b84610ae7565b9250610b5960208501610ae7565b9150604084013590509250925092565b600060208284031215610b7b57600080fd5b610b8482610ae7565b9392505050565b60008060408385031215610b9e57600080fd5b610ba783610ae7565b9150610bb560208401610ae7565b90509250929050565b600181811c90821680610bd257607f821691505b60208210811415610bf357634e487b7160e01b600052602260045260246000fd5b50919050565b634e487b7160e01b600052601160045260246000fd5b60008219821115610c2257610c22610bf9565b500190565b600082821015610c3957610c39610bf9565b50039056fea2646970667358221220804ef24536a030598188a6cda75c39647b5023b4e76a75e05ae79c162838301764736f6c634300080a0033",
  "linkReferences": {},
  "deployedLinkReferences": {}
}